:020000040001F9
:10800000583B002049810100638101006581010026
:108010000000000000000000000000000000000060
:108020000000000000000000000000006781010067
:108030000000000000000000698101006B81010068
:108040006D8101006D8101007D9201006991010047
:108050006D81010000000000898C0100598A010037
:108060006D810100359201006D8101006D8101007B
:108070006D8101006D8101006D8101006D81010044
:1080800081930100499101006D8101006D81010022
:108090009D910100A5910100BD9101006D8101003C
:1080A0006D8101006D8101000000000000000000F2
:1080B00000000000000000000000000000000000C0
:1080C0000348854600F086FC004800472DE101008A
:1080D000583B0020401E00BF00BF00BF00BF00BFD4
:1080E00000BF00BF00BF00BF00BF00BF00BFF1D195
:1080F00070470000056885F308884068FF2464B273
:10810000EFF30585002D01D1A6460047254606461A
:1081100021273FBAF0B40024002500260027F0B440
:10812000F92040B200470000401E00BF00BF00BF62
:1081300000BF00BF00BF00BF00BF00BF00BF00BF47
:1081400000BFF1D1704700000321094802680A43CB
:108150000260084802680A430260074880470748EF
:108160000047FEE7FEE7FEE7FEE7FEE7FEE700006A
:108170002405004054050040E1910100C180010048
:1081800030B50B46014600202022012409E00D46AF
:10819000D5409D4205D31D469540491B2546954037
:1081A00040191546521E002DF1DC30BD70B500247B
:1081B0002546002801DA01244042002901DA012580
:1081C0004942FFF7DDFFAC4200D04042002C00D016
:1081D000494270BDF0B51FB40646002082B0054686
:1081E0004024019100901BE0019922460F46304641
:1081F00000F0E0F9049A059B801A994110D31046CB
:108200001946224600F0C6F9361A8F4101972246D8
:1082100001200021009F00F0BDF938184D41009069
:108220002046641E0028DFDC019B00982946324668
:1082300007B0F0BD03460B439B0703D009E008C914
:10824000121F08C0042AFAD203E00B780370401C06
:10825000491C521EF9D27047D2B201E00270401C94
:10826000491EFBD270470022F6E710B513460A46B6
:1082700004461946FFF7F0FF204610BD421C017866
:10828000401C0029FBD1801A704730B504460020FD
:10829000034600E05B1C934203D2E05CCD5C401BD4
:1082A000F8D030BD03460A780270401C491C002AF1
:1082B000F9D118467047F8B502464A40D40F42003B
:1082C0004B0052085B089A4202D202460846114609
:1082D0004A0023D0C30D4A00DDB2120EAD1A202D84
:1082E00035DA49020126490AF6058A19002C00D020
:1082F000524220214F1B1146B9402A411018C20D8D
:108300009A4221D0002C17D0012D08DCDA05801A02
:10831000D20F8019D207DBB200F065F9F8BDDA059B
:10832000801A012340001B06C01880185A4280188A
:10833000CA0F1043490007E04908C2071143DA0594
:10834000801A80194008801800F045F9F8BD6100D6
:108350000122511A001BF7E70122D2075140AAE778
:108360000122D2075040A6E7024670B54A40D30F1B
:10837000DB0740002DD04A002AD0010E140E000267
:1083800012020919400A520A8418E50104465443AE
:10839000000A120A2E045043A4194219200CC543A6
:1083A000AA18120C0125AD03521C521912047F3970
:1083B000240400D0521C104301D44000491EC2B214
:1083C0000C06C0092018401C4008802A02D003E097
:1083D000002070BD40084000002900DA002018434A
:1083E00070BD70B502464A40D50F40004A00ED0707
:1083F00040085208002814D0002A12D0C40DD30D12
:1084000041020120C0055202490A520AE41A091821
:1084100012187D34914201D3641C00E04900002C05
:1084200001DA002070BD0023914201D3891A034371
:10843000400849000028F7D100290AD0914202D112
:108440000121C90705E0914201D2012101E001218A
:10845000C943E005C018401900F0BDF870BD4200E6
:1084600005D04200120E52428A4201DB00207047C2
:10847000C905081870470000F0B51FB488B00B9903
:108480000998002448400999C00F490049080991FA
:10849000C0070B990090490049080B910999089869
:1084A000A64608431CD00B990A98084318D009988F
:1084B00001244000420D4800410D099824050003A5
:1084C000000B204309900B980003000B20430B90F6
:1084D00050181C494018002201901446104605E02F
:1084E000002001460DB0F0BD032801DA034600E08C
:1084F00003239C46C11A0AAE0AE05F0008ADED5B9B
:108500004F00F75B7D430027AA187C41491C5B1E86
:108510006145F2DD410004AB5A522104120C0A43BA
:10852000240C401C0828DFDB01980290009970465B
:1085300001910090059B049A0799069800F099F81C
:10854000D0E700000DFCFFFFC217C10F504010B56F
:108550004018CA079623002100F045F810BD10B559
:1085600000229623114600F03EF810BD4100400263
:108570000122400AD205090E80187F2901DA002065
:108580007047962903DC9622511AC84070479639E5
:108590008840704710B5202A04DB0146203A9140FC
:1085A000002010BD914020239C1A0346E34019434C
:1085B000904010BD10B5202A04DB0846203AD04078
:1085C000002110BD0B46D340D0402024A21A914078
:1085D0000843194610BD002904DA401C490001D1A6
:1085E00040084000704770B40024050C05D11024E9
:1085F000000402D1002921D01124050E01D100026E
:108600000834050F01D10001241D850F01D1800020
:10861000A41C002801DB4000641C002908D0202590
:108620002E1B0D46F540A14000D0012129430843EF
:1086300001061B1B000ADB1D02D5002070BC704721
:10864000DB05181880180029F8DA401C4900F5D11C
:1086500070BC40084000704710B5002B08DA0024B9
:10866000401C614192185B411A4301D1400840000F
:1086700010BDF0B51FB482B005460C0003D008460B
:1086800000F0A2FE02E000F09FFE203002460090C3
:1086900021462846FFF77EFF049B059A04460F46B5
:1086A00018431143084314D0184610431BD00098B8
:1086B00040210A1A18460599FFF77CFF05460E4629
:1086C000009A05990498FFF765FF084305D001203B
:1086D00004E02046394607B0F0BD0020C11705432D
:1086E0000E432C43374300990E986305401A7905D1
:1086F000E40A00220C43FD0A0A3002D5002001469C
:10870000E9E70105101969410C9C0D9D00196941AB
:10871000FFF7A2FFDFE70000F0B507460846584024
:1087200087B0C00F049048000E4659004008490821
:10873000BC1A884105D2384631461E4617460B46BC
:1087400002465800400810434CD0300D03904005BD
:108750005900400D490D0590401A0290402872DAE8
:1087600018030121000B09050843019004980092A9
:10877000002805D0019952420020884100920190C2
:10878000029840210A1A01990098FFF703FF054655
:108790000C466B4607CB00F02FF9C0197141039AC4
:1087A0000E0D0023D71756401A467A40164344D080
:1087B000049A002A2DD0029A012A039A15DC120588
:1087C000C01A914101263605001C7141D20F059E49
:1087D000D2070093019202962A462346FFF749FFEB
:1087E00007B0F0BD38463146FAE71605224A0F4673
:1087F000B218C01AB74101210905001C4F410018E9
:108800007F41114618187941E20F10436D196441F8
:1088100013E0E2076D0815436408C2071443039A86
:1088200001261205C01A91413605001C7141CE0780
:10883000400830434908C01851412A462346FFF7F3
:108840000BFFCDE7FFE7049801224000C117121A81
:1088500000238B4104983146C417381AA141EEE732
:1088600030B40124E407634030BC55E730B4012440
:10887000E407614030BC4FE70000E0FFF0B50C4674
:108880005C4085B0E40FE40703944C0000266408C4
:1088900059009446490802460296224321D0624676
:1088A0000A431ED06200570D4A000E032303550DE4
:1088B000012402462C492405781B1B0B360B40185B
:1088C00023432643614600901C46501AB44103D30B
:1088D0000098401C009002E0921800985B4100282C
:1088E00003DA0020014605B0F0BD00200121090592
:1088F0000746864611E064461D46141BB54106D363
:108900006546521BB341744607430C43A646CD0748
:1089100040084908284392185B4105460D43EAD1B7
:108920001046184313D06046194650407140084322
:1089300006D06046101AB34106D20122002306E099
:1089400000220123DB0702E00122D24353100098EA
:1089500074460105381C6141029C039D0019694160
:10896000FFF77AFEBFE70000FD0300004A0009039D
:108970000123090B1B0519430A4B10B5520D9A42EE
:1089800002DA0020014610BD064B34339A4203DC64
:108990009A1AFFF70FFE10BD034BD218FFF7FAFD2E
:1089A00010BD0000FF030000CDFBFFFF10B5002944
:1089B00004DB0124E40740428C412146002B04DB08
:1089C0001C460123DB075242A341994200D1904249
:1089D00010BD0000064C0125064E05E0E36807CCFB
:1089E0002B430C3C98471034B442F7D3FFF76CFB91
:1089F00084160200A416020010B5202A06DBCB174D
:108A00000846203A1041C1170B4306E00B461341BC
:108A1000D0402024A21A91400843194610BD30B519
:108A20008C180278401C13071B0F01D10378401CDF
:108A3000120906D10278401C03E005780D70401C35
:108A4000491C5B1EF9D101E00B70491C521EFBD181
:108A5000A142E6D3002030BD10B5154900200860C2
:108A6000144901204860144880684B2180B20901F4
:108A70004843800A41004018104980B2C88202F081
:108A800019FB01460E4802F08BFC00280AD008288A
:108A900008D00C49884205D00B49884202D0642096
:108AA00005F076FD0021094A084602F009F810BDDC
:108AB0000071004000700040007500400020002060
:108AC0008C2C002004300000013400004906020014
:108AD0001FB500210B4807F021FE52211F2000F096
:108AE00037F8142005F054FD07A30FCB6C460FC4D4
:108AF0006A460E21202000F00FF8C82005F048FD3E
:108B00001FBD0000201302008C000096001E003FD5
:108B100000801020000E000038B50B4B0A241C709A
:108B20005870002004E0145C1D18401CAC70C0B2EA
:108B30008842F8D3891CCAB2034B03492033034847
:108B4000009206F08BF938BD642D0020201302003E
:108B500008B50A4A0A231370507091700320134617
:108B60000246009020330549054806F077F90028B1
:108B700003D00022114601F0F9FC08BD642D00204D
:108B80002013020010B508480122C17D1143C175B0
:108B90002C38008A0549884204D10021044A08463D
:108BA00001F08EFF10BD00002C200020FFFF000010
:108BB000519F010010B50848C17D49084900C175A1
:108BC0002C38008A0549884204D10021044A08460D
:108BD00001F076FF10BD00002C200020FFFF0000F8
:108BE000519F010010B5024806F096F910BD000033
:108BF0002013020000B595B040216846FFF733FB13
:108C000017A1684602F0E0FF17A102A802F0DCFFFE
:108C100016A106A802F0D8FF15A108A802F0D4FFFB
:108C200014A10AA802F0D0FF154810901548112190
:108C30001290119110A80C900120014608A8103143
:108C400001770020014608A84177684602F09AFDA6
:108C5000002802D0642005F09BFC15B000BD000088
:108C6000544F57454552000041410000302E31001D
:108C700031313000302E302E3531342E303000007E
:108C80005544332288776600F8B50025FF24013467
:108C900001262F460095204606F0F2FB002808D05A
:108CA00033484068304204D0324800212018354310
:108CB00001607600241D7F1C042FECD3FF207D3043
:108CC00006F0DEFB002807D02B480021016040079A
:108CD00005432A4800690090294F280712D0012631
:108CE00000242E420AD02748A200111808690969F9
:108CF000C004C00E8903BA58890F90477600641CDF
:108D0000042CEED3002D30DA00251D4E0021701901
:108D100040304156491C25D00778BC06A40E204699
:108D200003F0AEFB80003658002E1BD0BF09012196
:108D3000A140154AA00080180068009A8003800FA7
:108D4000114202D0022802D00CE003280AD1032FDE
:108D500005D102280AD00221204606F071FB3946CF
:108D60002046B0476D1C042DCFD3F8BD0321F3E797
:108D700000630040006000407C610040000500503E
:108D8000643100200065004000070050FEB50878FF
:108D9000EA286FD14F78C878EA25944E0222944C85
:108DA0003B0000F028FB0867052D4E7395A3D067A4
:108DB0008B78012B0DD0022B5CD125704878607028
:108DC000A2701020E07002468A49201DFFF732FA97
:108DD0002AE0102805D088A18548FFF763FA1322FE
:108DE000FDE00120307010228148091DFFF722FAB2
:108DF0006A460B21854806F0E1FD00231022D6E0EB
:108E00008B78012B0CD0022B34D125704878607000
:108E10007848A270E270801E817C2171C07C1FE0C6
:108E2000022803D07AA121E01422D8E03270087918
:108E3000207048796070FF20A070E0706A460621BB
:108E4000B0E08B78012B0ED0022B13D1257048781F
:108E500060706848A270E270801E017D2171407DC3
:108E600060710622BBE0022805D06FA16048FFF7C1
:108E700019FAD9E782E00320307008792070FF20CA
:108E80006070A070E0706A4607218BE08B78012B40
:108E90000BD0022B72D1257048786070A27001202F
:108EA000E0705448801E807D1EE0012805D064A13A
:108EB0004F48FFF7F7F9112291E00420307008794C
:108EC0002070FF206070A070E0706A46082169E0A1
:108ED000887801286FD12570487860700120A070D3
:108EE000E0704448801EC07D207177E08B78012BB4
:108EF00014D0022B5FD1257048786070A2700120D9
:108F0000E07054480088FFF72AFB5349FFF72CFA1A
:108F10005249FFF766FAFFF729FBE5E70128C6D1BA
:108F20000879662805D94EA13148FFF7BBF90D2213
:108F300055E0052131702070FF206070A070E07056
:108F40006A460A212EE08F780623012F17D0022FC0
:108F500031D1257048786070A2700120444DE070D6
:108F600000216956F02936D026DC00292BD00429AF
:108F7000BAD0D82938D0EC2930D12EE01BE0012816
:108F800095D10879072805D93AA11948FFF78AF938
:108F90000F2224E033702070FF206070A070E0701A
:108FA0006A460921194806F009FD002304221049E8
:108FB000684606F0FBFEFEBDF4290AD0F82906D06B
:108FC000FC290BD101E000208EE7227106E003208E
:108FD0008AE7042088E7052086E7237105220449F3
:108FE000284802F0C7FDFEBD07207DE70B200020CA
:108FF000FC2C00202E2000204641494C3A63686535
:10900000636B2055554944206C656E002420002078
:109010004641494C3A636865636B206D616A6F72C3
:10902000206C656E000000004641494C3A6368655B
:10903000636B206D696E6F72206C656E00000000BE
:109040004641494C3A636865636B206C656E677492
:1090500068000000122000200000203F0000C842ED
:109060004641494C3A546F6F206269672100000005
:10907000082000204641494C3A7061726D206572AB
:10908000726F7200B02C0020F8B5050006D01B4CA2
:109090000027A07B002803D00420F8BD0720F8BDDE
:1090A0000120A073164EAB20307077702A89100A09
:1090B000B070F2700020296802F02AF9010A3171BB
:1090C0003146707138394888020AB271F0716A68A5
:1090D00062602A6822602A8922812A896281E77374
:1090E000A081401C488030460121103881800460F6
:1090F000204607F0B1F90020F8BD0000D82E00206E
:109100007C2000208307FF22DB0E9A408907090E8E
:10911000994000280BDA0007000F08388308084838
:109120009B001818C36993430B43C36170478308BE
:1091300004489B001B181868904308431860704748
:1091400000ED00E000E400E010B5064900200860F2
:1091500048608860C860034940390860486007F08B
:1091600031FD10BD4011014070B5FF2109480931A2
:10917000094C00254550214607F0DEFD002808D1A6
:10918000607AFF2801D006F073F92572216800206B
:10919000884770BD00300040AC31002010B507F0AA
:1091A000A7FC10BD044901220878504008704968A6
:1091B000002900D0084770473821002010B5074823
:1091C0004068002807D08047002803D000221146BD
:1091D00001F0CCF910BD04F0E5FD10BDF421002034
:1091E00010B504F053FE002805D00E490C48486025
:1091F000C8130D4988610D48018CC9B201290ED1EF
:10920000818C09070BD1018D0906090F042906D1AC
:10921000808D0006000F02D105490120886010BD35
:10922000DFFF07C000050040006C0040C00F00F0E9
:1092300000060040F8B500260E4C35463746A8001B
:10924000FF3041302158002910D001210904A940E4
:1092500003221202A21852680A4207D02750B20015
:109260000549054B8958083B9A5890476D1C042DB9
:10927000E5D3F8BD0090004054210020F0B53C4DEE
:10928000012185B04902284606F0CFF901270026C2
:10929000384C002822D0FF212531284606F0C0F99D
:1092A00000281BD0FF2025302E508120324980001D
:1092B0008860607D002800D16F6002202F490090F7
:1092C000086808600390E07C69460872E0680190D5
:1092D000E67406CC6846083C90471DE00421284609
:1092E00006F0A3F9002817D0FF210931284606F01F
:1092F00097F9002810D007F019F8E07C217D88420A
:109300000AD1607D002800D16F6081201A49800059
:109310008860207D07F082F8FF211D31284606F085
:109320007FF900280DD0A07C218A884202D907F05D
:10933000A3FD06E0FF211D316E50002801D007F08B
:1093400003FEFF214531284606F06AF900280CD0BB
:10935000FF2045302E50607D002800D02F60E07C3B
:10936000002802D0207D07F059F805B0F0BD0000BC
:1093700000200040C831002000230040802400402D
:1093800006484068C107C90F0020002904D00449DD
:10939000086004480068004770470000000301406F
:1093A00000010140582100200FB410B503A9044B5F
:1093B000044A029800F0E8F810BC08BC04B0184752
:1093C00019D90100F02100202021020C01D0102128
:1093D0001046020A01D010460839020901D0104691
:1093E000091F820801D01046891E420801D0881E3C
:1093F0007047081A704730B47446641E2578641CA0
:10940000AB4200D21D46635D5B00E31830BC1847D9
:1094100002E008C8121F08C1002AFAD1704770473D
:10942000002001E001C1121F002AFBD1704700009B
:10943000F0B51FB484B007980699020D014314D00B
:109440004A484B491018484305140F9801280E98B4
:109450001CD0281A401C0024464E47490094019114
:109460000290002814DA474227E00F98012443A312
:10947000012808D0002104980F9A84600360C2601C
:10948000416009B0F0BD0E98C143F4E74042E2E705
:10949000074612E0F80707D02246334601990098A4
:1094A000FEF7EAFF01910090224633461046194626
:1094B000FEF7E2FF04460E467F10002FEAD1029825
:1094C000019B0028009A0799069802DAFEF7D4FF5C
:1094D00001E0FFF7D3F904460E460022284BFFF7C0
:1094E00065FA03D80020C043014607E00022254B5F
:1094F00020463146FFF710F9FFF738FA102409E04B
:10950000002C0ADB0A220023FEF764FE059B3032A2
:109510001A55641E02460A43F2D11122641C059BAF
:10952000121B1C190F9B012B03D0012308430ED1E2
:109530000AE0084304D011200E9000200F9084E729
:109540000E98151A6D1E0BE00E98824202DD002364
:109550006D1C03E0824201DA00236D1E002BEED069
:1095600004980F998260C16030C08AE701FCFFFF58
:10957000104D0000000024400000F03F30000000CB
:109580000000F0430000E03FFFB597B0064600251D
:1095900018E2252877D100242746FD49049400E0ED
:1095A0000443761C32780120203A90400842F7D1DB
:1095B00030782A280ED00222307801463039092925
:1095C00016D804990A235943303940181443761C9D
:1095D0000490F1E7189802C804911890002904DA61
:1095E0000120400304434842049002200443761CB7
:1095F00030782E2814D1042004437078761C2A2851
:1096000009D11898761C80C8189009E00A214F43A8
:10961000303FC719761C3078014630390929F5D911
:1096200030786C2810D006DC4C281AD068280ED070
:109630006A2817D104E0742813D07A2812D110E0D8
:109640000120400504430CE00121090501E003214C
:1096500009050C437178814203D1012000052418CB
:10966000761C761C3078119066280BD013DC5828B5
:109670007DD009DC00287BD04528F6D04628F4D0E0
:1096800047281AD1A5E118E0632835D0642870D0A6
:10969000652812D19DE170286CD008DC6728F1D0D4
:1096A00069287BD06E280DD06F2806D1BAE07328C8
:1096B0002ED0752871D0782859D01A9A19999047C8
:1096C0006D1C7EE16002400F022809D003280DD0F6
:1096D0000428189801680DD00D60001D189070E1E5
:1096E0001898EA1701680D604A60F6E71898016853
:1096F0000D80F2E70D70F0E718986A460178117254
:10970000001D18900020507202A80090012005E072
:10971000189802C8189000200091C04361070DD529
:10972000002101E00199491C0191B94212DA8142FC
:10973000F8DB009A515C0029F4D10BE0002101E034
:109740000199491C01918142FADB019A0099895CD7
:109750000029F5D1019904981A9B471A21463846E9
:10976000199A00F097FA0199401945180BE04FE05B
:109770002CE113E04EE0009800990078491C00911C
:109780001A9A199990470198401E0190401CF2D1F5
:10979000214638461A9B199A10E137E00A20002129
:1097A000009001916002410F022907D0189A01CA66
:1097B0001892C2179446032908D00AE01898C01DD1
:1097C000C108C90005C91891944607E000B2C21744
:1097D0009446042902D140B2C1178C46002261464A
:1097E000944506DA0A460021404291418C462D21DB
:1097F00002E0210504D52B216A461173012103E003
:10980000E10701D02021F7E7029155E00A200AE0A4
:10981000102008E010200090002104200443019152
:10982000082703E008200021019100906002410F09
:10983000022907D0189A01CA1892002294460329D7
:1098400008D008E01898C01DC108C90005C91891C2
:10985000944603E080B2042900D1C0B200210291F5
:10986000210729D51199702906D0009A1021019B52
:109870004A401A4305D00EE040216A461173012187
:1098800008E06146014306D030216A461173119900
:10989000517302210291009A0821019B4A401A4308
:1098A0000AD16146014301D1610705D530216A46DD
:1098B000117301217F1E02911199582904D035A1FD
:1098C0000E910DA90D910DE037A1F9E76146019BBD
:1098D000009AFEF77FFC0E9B8C469B5C0D9A521EF5
:1098E0000D92137061460143F0D10D9805A9081A35
:1098F00020300190600703D501200004844300E07C
:1099000001270198874201DD381A00E00020019903
:1099100000904118029809180498401A0490E00336
:1099200006D421461A9B199A049800F0B3F94519F8
:10993000002706E003A81A9AC05D199990476D1C8C
:109940007F1C02988742F5DBE0030CD521461A9B69
:10995000199A049800F09EF9451904E01A9A3020EB
:10996000199990476D1C0099481E00900029F5DC5C
:1099700008E00D980D990078491C0D911A9A1999D3
:1099800090476D1C0199481E01900029F1DC63E1AC
:1099900009280100303132333435363738396162C5
:1099A0006364656600000000303132333435363789
:1099B00038394142434445460000000000F05AF95E
:1099C0004519761C3078002800D0E2E528461BB007
:1099D000F0BD600700D406271898C01DC108C90053
:1099E00048680A680831C30FDB071891190001D0D5
:1099F0009CA108E0210501D59BA104E0E10701D06D
:109A00009AA100E09AA1430011985B081091652883
:109A10000CD006DC452809D046281DD0472841D166
:109A200041E0662818D067283CD13CE00021112F86
:109A300001DB112000E0781C0191009008A911A819
:109A4000FFF7F6FC139905910021119A15927F1CDE
:109A500012980197009150E00120C0070390012067
:109A6000019008A9009711A8FFF7E2FC139A149936
:109A700005920022119B009212981593059A01926B
:109A8000002901D0104602E0791C40180190381AD4
:109A900001D5019804E04042401E0090781C0190DE
:109AA000C01B029043E0012F00DA01270021112F93
:109AB00001DD112000E038460191009008A911A8AD
:109AC000FFF7B6FC13990591119A0021129815928F
:109AD0000091019721070CD40599B94201DB019946
:109AE00000E00191012904DD159A491E515C3029DD
:109AF00006D0B84201DA011D05DA0121029115E014
:109B00000199491EEDE7002805DC009941180091F4
:109B10000199091A03E0019A411C914200DD01916B
:109B20000099401A401C02900120C00703902007B2
:109B300006D402990198814202DB0020C0430290C2
:109B400000206946C87707AF012103980337C9078A
:109B5000884224D0022011902B20129003980028D4
:109B60000CDA404203902D20129007E00A2103985E
:109B7000FEF706FB30317F1E039039701199481EA5
:109B800011900029F2DC03980028EFD1791E129879
:109B900008703078202108404530BF1E387006A874
:109BA000C01BC01D039010980078002800D0012031
:109BB000019941180298C0170918039809180498C8
:109BC000401A401E0490E00306D421461A9B199ABD
:109BD000049800F05FF8451910980078002803D029
:109BE0001A9A199990476D1CE00324D521461A9BB7
:109BF000199A049800F04EF845191CE000980028C6
:109C000007DB00990598884203DD1598405C199997
:109C100001E0199930201A9A904700986D1C401C59
:109C200000900298401E0290002804D11A9A2E201B
:109C3000199990476D1C0199481E01900029DDDC9F
:109C400005E038781A9A7F1C199990476D1C039982
:109C5000481E03900029F4DC21461A9B199A0498A7
:109C6000ACE600002D0000002B00000020000000EA
:109C700000000000F8B5044600251E46174688047B
:109C800004D405E039462020B0476D1C641EF9D588
:109C90002846F8BDFFB50446002581B01E46C8031E
:109CA00001D5302700E02027880404D505E0384698
:109CB0000399B0476D1C641EF9D5284605B0F0BD68
:109CC0000EB51049886A096B009006200190029138
:109CD000684604F02DFC0C49012048600B498020A7
:109CE00008600B48016803220902090A9207114320
:109CF0000160084800224168FF231B02994341602C
:109D000002600EBDA01202000073004000E100E0FE
:109D100004E400E000750040F7B584B00025168823
:109D200007461580C06B1446002813D003780598A9
:109D3000032E50D30221017021881122491C89B2BF
:109D4000218042542188491C89B2218043542088B3
:109D5000401C2080B86B00281DD00546208805993E
:109D600002461232B24236D811220A5420881022FA
:109D7000401C80B220800A542088401C20800F2084
:109D80002A5C2388401ECA54228840B2521C22807A
:109D90000028F5DA0025786B002806D033462246E5
:109DA000059904F0C5F8050016D138462030029018
:109DB000407C002806D032462146059801F0F8FB89
:109DC000050009D17879002823D005988646208897
:109DD000001DB04202D90C2007B0F0BD684679DF03
:109DE0000028F9D121880320724650542088192177
:109DF000401C80B22080115420887146401C80B2E3
:109E0000208041186846008807F04AF921884018E8
:109E10002080B879002817D0218806230A46FB56EF
:109E2000C91C0598B142D6D802218154218801224B
:109E3000491C89B2218042542188491C89B2218061
:109E400043542088401C2080B868002817D02188FF
:109E50000023C3560A46C91C0598B142BBD802214B
:109E6000815421880A22491C89B2218042542188C8
:109E7000491C89B2218043542088401C2080B88925
:109E800000280AD0009438460196062202210C30A0
:109E9000059B07F096F905009ED1B88A00280AD0E4
:109EA000009438460196072203211430059B07F0E1
:109EB00088F9050090D1B88B00280AD00094384664
:109EC0000196152214211C30059B07F07AF9050034
:109ED00082D1786A002806D033462246059902F0DE
:109EE0007FFC0500D8D1B86A002806D03346224648
:109EF000059904F093FA0500CED10298007C002861
:109F000007D0334622463846059906F0BDFA0500CB
:109F1000C2D13868002807D0334622463846059912
:109F200004F0B0FA0500B7D1284655E710B5002077
:109F300000F044F910BD10B5032000F03FF910BD4A
:109F400010B50D220221002002F052F8002010BDB1
:109F500010B5A4B04C216846018011480290182128
:109F6000684681800624402103A8FEF77CF9002082
:109F70000390684684740D90402114A8FEF773F98D
:109F800002201490064814A92438169003A801F062
:109F9000D3F9002802D0642004F0FAFA24B010BDEE
:109FA0002C200020F0B5814C91B060680690E068EC
:109FB0000790FF22102108A8256AFEF74DF90DAA87
:109FC0000B217B4805F0FAFC002310220DA96846FE
:109FD00005F0C8FD1022694608A8FEF756F9744E30
:109FE0000836002805D010226946B01CFEF722F979
:109FF00028E06D1C26D02269A369150E6169E0690D
:10A000006B4FB570150C0837FD70150A3D713D4654
:10A010006A710A0EAA710A0CEA710A0A2A722A46A1
:10A020005172190E9172190CD172190A11731146DD
:10A030004B73020E8A73010C2A46D173010A117404
:10A04000114648740DAA0621594805F0B7FC0023B3
:10A0500002220DA9684605F085FD0222694608A87E
:10A06000FEF713F9524D243D002803D068460088BE
:10A07000A88208E00698401C07D020884C49020AB4
:10A0800010390A70487005F0D9FA0DAA072148481E
:10A0900005F094FC002302220DA9684605F062FD3C
:10A0A0000222694608A8FEF7F0F8002803D06846A7
:10A0B0000078307506E00798401C03D02089010A1B
:10A0C000317570750DAA0821394805F077FC002319
:10A0D00001220DA9684605F045FD044601226946A6
:10A0E00008A8FEF7D2F8002804D0314869461E308F
:10A0F00009780170002C02D0642004F049FA0DAAFE
:10A100000A212B4805F05AFC002301220DA96846BC
:10A1100005F028FD0122694608A8FEF7B6F80028D8
:10A120000FD068460078411E65290AD8FEF717FA55
:10A130002049FEF719F92049FEF753F9FEF716FA00
:10A1400068820DAA09211A4805F038FC0023012273
:10A150000DA9684605F006FD0122694608A8FEF72C
:10A1600094F800280DD0684600780300FFF743F903
:10A170000805070B0E1114171A09002000E004202F
:10A18000287211B0F0BD0320C043F9E70720C04397
:10A19000F6E70B20C043F3E70F20C043F0E713209E
:10A1A000C043EDE72720C043EAE70000801000101D
:10A1B000242000200000C8420000203FF0B59BB0E2
:10A1C0000AA805F0E7FB002802D0642004F0E0F9BB
:10A1D0000A9801273F4C002802D0E7711BB0F0BD60
:10A1E00018216846FEF73FF800256846057001957E
:10A1F00005720395207806260300FFF7FCF8070593
:10A2000006333E624853620027700820694608778B
:10A2100008A908710BA8069013A808902D4806A954
:10A220000E3003F091FA002802D0642004F0B0F957
:10A230006846007F002803D108A80079002808D0CC
:10A2400002256846057206A80390FFF781FE257077
:10A2500001E0032020702048694608821E204882C1
:10A26000032027E0FFF774FE1B48694608821E2082
:10A2700048820320207002201CE0FFF769FE618AFB
:10A2800068460182B42141820420207012E0FFF769
:10A290005FFE618A6846018246822670042001F0D2
:10A2A000C9FE0EE0FFF754FE618A684601824582CE
:10A2B0002670002001F0BEFE002802D0642004F0C9
:10A2C00067F9684673DF002888D0642004F060F9DD
:10A2D00084E7000000200020410600000248002121
:10A2E000C1708170704700000020002010B50A4C3A
:10A2F000A06900280ED10121084889038160490026
:10A30000816049008160FEF7E3FBA069401CA06109
:10A31000FEF768FC10BD0000002000200005005082
:10A32000F0B58FB00D4606461C216846FDF79BFF31
:10A33000684601780A2001436846017000240194B0
:10A34000039404940594012708A80694877016497D
:10A35000684601840794697A0177A97A4177807FFA
:10A36000F9210840F721801C0840EF2108404108EE
:10A3700049006846817714210AA8FDF774FF297AFD
:10A3800008A801710A9007A80B90684607864486C2
:10A39000878609A80E90334630890A330AAA69468F
:10A3A000A2DF0FB0F0BD0000062A000010B50020AB
:10A3B00000F01AF802480179491C817110BD0000B3
:10A3C0000020002010B505A10648FDF76BFF0549E8
:10A3D000052208464C3801F0CDFB10BD616C65725A
:10A3E00074000000FC2C002070B5002816D00F254A
:10A3F0002D04104C01281AD002280ED1122001F091
:10A4000019FE002802D0642004F0C2F80022294678
:10A41000206800F057FC01F09DFF70BD142001F092
:10A4200009FE0028F9D0642004F0B2F870BD1020B5
:10A43000E5E70000A0120200044842680121090675
:10A440000B46934383600A40C2607047000500508A
:10A4500070B50024074D07E00C2069686043085C74
:10A46000012104F0D3F8641C28788442F4D300203E
:10A4700070BD0000A0210020FEB515460C46064622
:10A48000052A01D20720FEBD04F092F9002803D16D
:10A4900004F066F90028F6D1114900204E600C70D6
:10A4A000C8608D6008610F4D0FE0291D0EC96F4611
:10A4B0000EC70C20604380194168019100780A4A58
:10A4C000694604F0F1F80028DDD12046641EE4B2AC
:10A4D0000028EAD1054A0021024800F095FBFEBDA4
:10A4E000A0210020541602004DDB0100E9C9010043
:10A4F0003EB5044604200190174802906946204664
:10A5000002F0F6FC002806D01449884202D06420EC
:10A5100004F03EF83EBD10481C38017FC90715D035
:10A520000F4A0C21008AA7DF00280FD00D4988426E
:10A530000CD008280AD0891C884207D0112805D0E1
:10A540000949884202D0642004F022F8204602F033
:10A55000CBFC0028DBD13EBD1C2000204080000049
:10A56000FFFF0000023000000134000010B564203D
:10A5700004F00EF810BD0000014B1B6818470000E6
:10A580000031002010B58268C368934203D003F005
:10A5900055F9002010BD052010BD002906D0002A65
:10A5A00002D0531E134203D0092070470E2070477B
:10A5B0000160838000218160C1600846704710B54A
:10A5C0008268C3689A1A83889A4203D803F040F9D4
:10A5D000002010BD042010BD38B50C46A2680C2325
:10A5E0005A43064B09789D58054A926A00920246E2
:10A5F000204608302369A84738BD0000D03200202B
:10A600006C21002010B5064914230A785A435118CA
:10A61000091DFFF7E1FF042006F02AF810BD000035
:10A620000432002070B5054640680B4E017A715C1B
:10A630000124FF290DD0FE290CD004F091FC014625
:10A640006868007A8200331D9A58914202D1FF2136
:10A6500031540024204670BDB421002070B504465A
:10A6600000680D46008E642180B25043FDF788FDDE
:10A6700082B22946204600F001F870BDF7B50446C5
:10A6800005680198182148434719686C1646022846
:10A6900001D00820FEBD7868B04206D1696B002960
:10A6A00045D06068007A884741E02046FFF7BAFF4E
:10A6B000002801D01120FEBD61681E4A097AFE20E3
:10A6C00050547968002902D0286B814210D3002EA3
:10A6D00002D0286BB04205D832462046019905F0D9
:10A6E00031FC14E032462046019905F065FC0EE08D
:10A6F000002E01D0B04205D832462046019905F01F
:10A70000E5FC04E032462046019905F05BFD206837
:10A71000406B00280BD06068064A007A0221400096
:10A72000521C821801981154606804F04DFC0020FE
:10A73000FEBD0000B4210020FFB583B006460768C7
:10A74000049D18204543786CEC19002802D008209D
:10A7500007B0F0BD0020606006982D4A206107CA4E
:10A760006B4607C32846316810300858002808D0C7
:10A77000002001906946059804F022F8002817D1BE
:10A7800001E00120F5E70598785101270599384641
:10A790008840069A1F49002A01D0C86000E08860FE
:10A7A0000025A8000019083004F0C0F8002801D0E6
:10A7B0000420CDE76D1CEDB2022DF2D3A06804F0A9
:10A7C0001BF9E06804F018F9206804F045F8054624
:10A7D0007068049904F0E9FB01462A46A06804F079
:10A7E000EBF8206804F038F805460221706804F0A0
:10A7F000DCFB01462A46E06804F0DEF82775716844
:10A80000054A097A002049008A18049950549FE7A4
:10A810006416020000050050B5210020F8B5064678
:10A820000768406804F0E0FB0221706804F0C3FB95
:10A830000024A000C019806B04F0DEF8641CE4B2B0
:10A84000022CF6D30024204618214843C519297D3F
:10A85000002912D03168103008582978002818D003
:10A86000012088400D49C860286803F0FFFFA868F0
:10A8700004F0C2F8E86804F0BFF8641CE4B2022CEB
:10A88000E1D370680021006805F014F801207864B5
:10A89000F8BD0120884001498860E5E700050050C7
:10A8A000F8B50768054600246A682046127A182120
:10A8B00048435300174AC61900219A181155317D93
:10A8C00000290DD029681030085800281FD0002119
:10A8D000306803F0F3FF306803F0D8FF00207060A9
:10A8E000641C022CE0D369680A4AFF20097A521ED0
:10A8F000505468680121006804F0DCFF686804F0C7
:10A900003BFB686804F07AFB02207864F8BD012103
:10A91000DEE70000B5210020F7B586B00E00054641
:10A9200006D02C68606C002804D0082009B0F0BD67
:10A930000B20FBE704F0F4F9002803D0852801D0B0
:10A940000420F3E703F034FF002805D103F008FFEB
:10A95000002801D00320E9E70021C943A163E16396
:10A96000002007462164024618235A4313191F7515
:10A970009960401CD960C0B2A1500228F3D30027CF
:10A98000B8000019383003F0D1FF002809D17F1C2E
:10A99000FFB2022FF4D32046403004F021F9002802
:10A9A00003D0284605F058FACAE70027B800325805
:10A9B000511C12D08019836839462846FFF7BCFE27
:10A9C0000090002804D0284605F046FA0098ADE72C
:10A9D000002239462846FFF751FE7F1CFFB2022FA6
:10A9E000E4D300270921214A706901E040087F1C57
:10A9F000904201D98F42F9D314221D4901A8FDF7D5
:10AA000019FC019768681B4A007A059001A96868DB
:10AA100004F018FB070004D0284605F01DFA38465C
:10AA200084E77169686804F095FB064620636868EE
:10AA300004F0A2FA01270097042332460221686835
:10AA400004F0E8FA0221686804F0B5FA0898606337
:10AA500068680949007A084A80000D506968FF203B
:10AA6000097A083A5054002067645FE7FF0F00003E
:10AA700070160200EDFE0100BC21002070B50F4BE6
:10AA800005241D785E78AE4215D01D781C789E880E
:10AA9000B44201DA641C00E000241C705C88DE68AB
:10AAA0006C43A41904609B68E800C418A4880C8057
:10AAB000185800241060204670BD0000C0210020FE
:10AAC000F7B53A4C82B060880F4681426CD80020BE
:10AAD000694608703749364E4868C005C00D16D023
:10AAE000103807D50207120F083A92089200511841
:10AAF000C96904E08108304A89008918096880071B
:10AB0000C00EC1400806850F012D01D10AE00425C1
:10AB1000684636DF02280CD0002803D000221146F8
:10AB2000FFF724FD22786078A188884203DA401C70
:10AB300002E072B6F6E70020C0B2904207D0667815
:10AB40006078884201DA401C00E000206070012D2E
:10AB50000BD062B66846007837DF022805D000289F
:10AB600003D000221146FFF701FD1148864219D09B
:10AB7000A068F50004994151029900290CD0002FDA
:10AB80000AD060883A464643E0683018FDF752FB29
:10AB9000A0682818878002E0002128188180002002
:10ABA00005B0F0BD0420FBE70920F9E7C021002033
:10ABB000FFFF000000ED00E000E400E00EB504E05F
:10ABC00068468188029A0098904702AA01A96846BF
:10ABD000FFF754FF0028F3D00EBD000030B5CB00C6
:10ABE00008339DB293070024002B01D0072030BD0D
:10ABF000044B9A605219DA605C701C70588099801E
:10AC0000002030BDC0210020094B9B68002B07D0DD
:10AC1000002A07D0002805D00068037C002B03D051
:10AC2000082070470720704782614161002070470B
:10AC3000D0210020FFB59007002581B014460E46B4
:10AC4000002832D11B4F002C31D005F04DFB049869
:10AC500078610320387033461821224600204B4388
:10AC6000BC601834C10089180D704D708E704C6036
:10AC70001C19401C0328F5DBFD607D7001240E4883
:10AC8000BD702405046003211420FEF73BFA0B4835
:10AC900004600B4C0198A06003211120FEF732FAEA
:10ACA00060683861002005B0F0BD0720FBE7BD609B
:10ACB000FBE70000D021002080E200E000E100E09E
:10ACC00000150140FEB50D461A491746896804462D
:10ACD000002928D0002C26D0052D01D20720FEBD4A
:10ACE000A06900281FD0606901281ED0002606F048
:10ACF0002DFAC0000F49019089684018694606F096
:10AD00004DFA002813D0012112C00B494968E2C056
:10AD1000084901988968411868460078487005F02C
:10AD200029FF0020FEBD0820FEBD2E46DFE70420DF
:10AD3000FEBD0000D021002000150140F8B5124DE5
:10AD40000446A96800291BD0002C19D0A06900284E
:10AD500016D00026267406F0F9F9C700A8686946DF
:10AD6000381806F01BFA00280CD0022112C0A8687F
:10AD7000391868460078487005F0FCFE3046F8BD8A
:10AD80000820F8BD0420F8BDD021002070B504468D
:10AD900021488AB01E460D0042603AD0A888296832
:10ADA00082B21E48FFF7F9FB002830D1A889A968B4
:10ADB00082B21A481030FFF7F0FB002827D1242276
:10ADC00017496846FDF736FAE06807906068002882
:10ADD00000D00120059008A80670207A002800D035
:10ADE0000E200690E0780290A078039020780190E1
:10ADF000607800900B49684604F0B8F9002806D145
:10AE000004F068FA04480121801C04F009FA0AB031
:10AE100070BD0720FBE7000064210020E431002022
:10AE2000081602000910020010B504460648012168
:10AE30004470401C04F05AFA112803D121460348FB
:10AE4000FFF7BDFB10BD000064210020F43100209D
:10AE5000800B01D00020704701207047F7B5774C78
:10AE600082B02646A0682836002804D0022804D0E4
:10AE700001280CD011E0A2600FE0012A0DD1B088AA
:10AE800001280AD102980068A061012002E0022A8C
:10AE900003D10220E06005B0F0BDA068022804D014
:10AEA0000028F8D002980568B0E064481430C178F2
:10AEB0000129F0D10288807801282AD000235F4937
:10AEC000AB20303108706846007810250009000179
:10AED0002843DF25284001256B405B01184383068A
:10AEE0009B0E684603704B7000274F8050BA8F80CE
:10AEF000C8800822524800F03DFE00280BD051497E
:10AF0000884216D14D4950481431022205F090FB79
:10AF1000C1E70123D3E74948A7601430C770E06850
:10AF20000128B8D1A0690028B5D0E760A560054622
:10AF30006CE000204149A0601431E060C870AAE7CD
:10AF40003E4908203831012700900DE0688900282B
:10AF5000A1D0142801D9142100E0014600912989CB
:10AF6000081A2968411802273548009A00F002FEA5
:10AF700000280FD0334988424CD13348012229465A
:10AF800005F056FB314801212A4689040068FFF785
:10AF900099FE80E7002F39D0012F04D0022F0AD06C
:10AFA000032F33D12AE0B08801282FD10020B080B0
:10AFB000A063E0632AE069890098081A0004000C85
:10AFC000688123D100273A461146084605F030FB38
:10AFD0001E48A7600121E5612A4689040068FFF741
:10AFE00071FEE068022811D114481430C07801289D
:10AFF0000CD10220A0600020E0604EE70F49143120
:10B00000C878012802D10020A060C870B08801284B
:10B010009CD195E700273A461146084605F008FB03
:10B02000A7606968002902D0AF7300208847E068F4
:10B03000022884D1E760A0602FE7000044200020B0
:10B04000B02C00200430000059040200401302001C
:10B0500000B585B014216846FDF705F91348009046
:10B060000121684601710020029064216846017345
:10B0700001200146684610314173012001466846AF
:10B0800010318173002001466846C17301200146DA
:10B090006846103101746946054800F0BBF9002884
:10B0A00002D0642003F074FA05B000BD59F6010027
:10B0B0008C2C00203E4910B5884201D3642010BD7D
:10B0C0003B496439884206D93A4A0A218018FDF77B
:10B0D0006DF85A3008E0AF221201904206D90A21D9
:10B0E000801AFDF763F85030C0B210BD3249884273
:10B0F00007D9304A0A21C8328018FDF757F8463080
:10B10000F2E72D496439884206D92C4A0A21801871
:10B11000FDF74CF83C30E7E72749C839884207D9A2
:10B12000264A0A2164328018FDF740F83230DBE706
:10B130004B225201904205D90A21801AFDF736F8B8
:10B140002830D1E71E49884207D91D4A0A215242B8
:10B150008018FDF72BF81E30C6E71949643988427C
:10B1600006D9184A0A218018FDF720F81430BBE7E9
:10B170001349C839884207D3124A0A216432801819
:10B18000FDF714F80A30AFE77D210901884201D9A3
:10B19000082010BD0C49884201D9052010BDE121CD
:10B1A000C900884201D9012010BD002010BD000057
:10B1B000B80B0000ACF4FFFF8C0A0000D8F5FFFFCD
:10B1C000FC08000068F7FFFF6C070000F0B50546BB
:10B1D000007D002493B00E4600280DD001200146CA
:10B1E0006846103103940173717B4173817BF920B0
:10B1F00001406846891C81731C2104A8FDF733F8BF
:10B200006946087C02210843694608742A7DEF21BB
:10B21000002A02D01022104300E008406A46107451
:10B22000059407940894287D002800D003A809906D
:10B2300001270A9410469771304A82800094B27BAD
:10B240000270F27B42708078F9221040F722801C55
:10B250001040EF2108404108490068468170317B69
:10B26000017214210BA8FCF7FEFF01A80B906846A1
:10B270000C908786C486078702A80F90A888AB1D0C
:10B280000BAA04A9A2DF002835D1B068002830D06D
:10B29000684687711A4981800094317C01700020D2
:10B2A0000146684641708078F9210840F721801CEA
:10B2B0000840EF210840410849006846817011A804
:10B2C000B16800F08AFC064614210BA8FCF7CBFFFE
:10B2D00001A80B9068460C908686C486068711A844
:10B2E0000F902A46E8880E320BA9A3DF002802D16E
:10B2F00000E0EC81002013B0F0BD0000192A00002E
:10B3000008290000014901200860704700700040D2
:10B3100030B5084C08E00D7803466B401B06DB0D8A
:10B32000E35A000A5840491C1346521E92B2002BA1
:10B33000F1D130BD4C130200F0B50C4693B01F2183
:10B340006A461180072600279180002809D081795C
:10B3500049070DD502A9FEF7DFFC002809D102AD8F
:10B3600001E000251780002C0ED0A079002802D023
:10B37000304613B0F0BD01AA0AA92046FEF7CCFC66
:10B380000028F6D10AAA02E06846002287806846B3
:10B390008088C3B268460088C1B2284672DFE8E7F9
:10B3A00073B586B004002FD06A46217C127F00203E
:10B3B000914227D0002501266846009506804580E9
:10B3C00007A80190E188608A6A46A4DF002819D1A5
:10B3D0006846007F2074608A0D49884216D0207D1F
:10B3E000002813D00295039504950595E1886846D9
:10B3F0000181867241888181049001980590608A5C
:10B4000002A9A6DF08B070BD0E20FBE70820F9E70F
:10B41000FFFF000038B50D4604001AD0002D18D0EB
:10B42000286820600020C043608228792075FF20B2
:10B43000207401216846817007490180221D6946F8
:10B440000120A0DF002803D129462046FFF7BEFED9
:10B4500038BD0E2038BD00000F18000008B50028C8
:10B4600024D0002922D00A88102A1AD0112A1AD0F2
:10B47000502A1BD1027D002A18D0CA884389891D11
:10B480009A4213D10A8B022A10D10268002A0DD0E9
:10B49000CA7E8B7E11021943C907C90F07D000214C
:10B4A00006E0898801E00021C943418208BD0121ED
:10B4B000009102686946904708BD000070B50546D6
:10B4C00001461C220E48FCF7B5FE0E4C00262670E5
:10B4D0002968002906D00822201DFCF7ABFE201D9C
:10B4E0007ADF02E00748001D7BDF002807D1401EFD
:10B4F00060806670044A00210448FFF785FB70BD38
:10B500004831002024210020E9100200B815020073
:10B51000F8B5214C028800271E4DE689102A15D067
:10B520001E49112A21D0122A2DD0502A1CD1C2889E
:10B53000801DB24218D1028B022A15D1C27E837EB1
:10B5400010021843C007C00F0CD112E08188698037
:10B5500001461048082216310C30FCF76BFE6F7064
:10B56000002E01D101F086F9F8BD0020C0436880AB
:10B570006F700868FFF7E2FB0028F5D0A169002989
:10B58000F2D08847F8BD811D024808220C30FCF734
:10B5900051FEE7E72421002048310020B8150200C1
:10B5A00010B502480068FFF7C9FB10BDB8150200CE
:10B5B0007CB5054608880C460930904201D90C201C
:10B5C0007CBD684671DF0028FAD1218808206854C4
:10B5D00020881B21401C80B220802954208800A98B
:10B5E000401C80B22080401906220131FCF722FE67
:10B5F00020886946801D80B220800978002900D00B
:10B60000012129542088401C208000207CBD00009E
:10B6100030B585B00D46040039D0002D37D06868AC
:10B62000002834D00020C0431A4B20800FCB049355
:10B6300001AB07C318486946088001A8811E63DF73
:10B64000002822D1221D69460120A0DF00281CD13C
:10B6500068468078A071204601F0BCFB002814D118
:10B66000204601F073FB00280FD12946204601F047
:10B67000F3FB002809D16868A062A868002800D000
:10B68000E062064901200870002005B030BD0E20A0
:10B69000FBE700007815020030150000B420002000
:10B6A0003EB5002828D0002926D0826A002A23D05F
:10B6B0000A88102A21D0112A30D0502A1FD0512AAE
:10B6C0001AD104460846891D0A78022A14D14A88EC
:10B6D000238A9A4210D1807A04280DD006280BD0F4
:10B6E000052809D02046891C04F053F8002803D00F
:10B6F000E16A002900D088473EBD898810E0CA88E9
:10B7000003899A42F8D1082200928A7F6B461A7206
:10B7100020310191826A694690473EBD0021C943AC
:10B7200001803EBD30B585B0002822D00388134C7F
:10B73000A34220D0124B1B78002B1CD0104B10259D
:10B740005B1C1D705970002401259A700322694604
:10B750000A820094019402940394028A0A808D70F4
:10B760008C8004A90291039300886946A6DF05B086
:10B7700030BD0E20FBE70820F9E70000FFFF0000C6
:10B78000B42000207FB504460121684681714A49F2
:10B7900081804A4A01A90120A0DF00287ED12288A9
:10B7A00025463C35002A09D044482B46801C009091
:10B7B0004348616800F06CFE00287BD12289002A92
:10B7C0000AD03E482B460A3000903D48E168401FB1
:10B7D00000F05EFE00286DD1228A002A0AD0374888
:10B7E0002B461230009036486169001F00F050FE71
:10B7F00000285FD1228B002A0AD030482B461A300D
:10B8000000902F48E169801E00F042FE002851D1CF
:10B81000228C002A0AD029482B4622300090284842
:10B82000616AC01E00F034FE002843D1228D002A38
:10B830000AD022482B462A3000902148E16A401E57
:10B8400000F026FE002835D1216B00290ED002A879
:10B8500005F09EF819482B4632300090184808220F
:10B8600002A9801F00F014FE002823D1606B00287D
:10B870000BD012492B463A310091027901681048E9
:10B88000401C00F005FE002814D1A16B002910D047
:10B8900002A804F05FF80948423000E00AE0009096
:10B8A00007482B46072202A9273000F0F1FD0028A7
:10B8B00000D1002004B070BD0A180000BC20002098
:10B8C000292A000010B504460146174800F012F975
:10B8D000204601F035FB2046FFF71AFE12482146AC
:10B8E000483805F0AFFA10482146383800F0A4F87F
:10B8F0000D4821462438FFF7B1FD0B4821460C388E
:10B9000000F02CF808482146543800F083F920460E
:10B9100000F08CFA044821461C30FFF7C1FE204697
:10B9200003F0AEFE10BD0000B02C00200A68002A13
:10B930000ED00260496841600021C9434181002165
:10B940000181044801218170034901800020704772
:10B950000720704706210020062A000038B504465B
:10B9600008880122102809D0112828D0302810D0AA
:10B97000322802D1204603F0E3FE38BD888860817A
:10B98000684682701549018060896A46012190DF0E
:10B9900009E0CB882046002B0CD18B89002B09D0E5
:10B9A0006089123192DF0028E7D061680029E4D075
:10B9B000884738BD009202686946904738BD00202C
:10B9C000C043608120890028F8D0022000902268BE
:10B9D0006946204690470020208138BD02180000AB
:10B9E0001CB5002201246B4600921C805A800191F4
:10B9F0004189408A6A46A5DF1CBD000038B504466F
:10BA000008680D46002813D0206068686060012136
:10BA10006846817007490180224608326946012044
:10BA2000A0DF002803D129462046FEF779FC38BD67
:10BA3000072038BD031800001CB50B880022102B0E
:10BA40000BD0112B0CD0172B19D18979002916D1C5
:10BA5000694600920A71026815E089884182F7E719
:10BA60000446887908280AD1204601A90092FFF7E8
:10BA7000B7FF002804D06168002900D088471CBDAA
:10BA800022686946204690471CBD000030B5184B1F
:10BA90000D4604000FCB85B003936B4607C324D03B
:10BAA000002D22D00020C043A0822868A061002081
:10BAB000A0752146684663DF002814D121786846C6
:10BAC000817401210182A21C04A90120A0DF0028A9
:10BAD00009D12946204604F03FFC002803D129461D
:10BAE000204605F0DFF905B030BD0E20FBE7000071
:10BAF0004C15020030B400281FD000291DD00B883F
:10BB0000012B2CD0102B16D00022112B17D0502B2C
:10BB100013D1CB88048A891DA34202D10C8B022C3D
:10BB200011D08288934208D18369002B05D00A8BFB
:10BB300030BC1A3118478988818230BC7047002197
:10BB4000C943818209E0CB7E8C7E19022143C9075B
:10BB5000C90F02D001218175EFE78275EDE7044836
:10BB60000268002AE9D08168406830BC10470000B4
:10BB70004C2F002007B584B000280DD0828A114BCD
:10BB80009A420BD0827D002A08D06A46128B142A72
:10BB900006D9072007B000BD0E20FBE70820F9E713
:10BBA0000022009201920292039282896B461A80CF
:10BBB000039106A9029101219970808A6946A6DF46
:10BBC000E8E70000FFFF000070B504460D46084698
:10BBD000FCF754FB2080656070BD0A7802704978DC
:10BBE000417002207047000038B504460D4601211F
:10BBF0006846817006490180224669460120A0DF1F
:10BC0000002803D12946204605F0AEF938BD0000D2
:10BC1000041800000A88102A01D1898841817047E0
:10BC200003B583B0002101236A460091138051803F
:10BC300004A9019141884089A4DF05B000BD00003E
:10BC40001CB56A460521074803F0B8FEFF222021F3
:10BC50000548FCF701FB002320220349684604F055
:10BC6000A5F81CBD24200020582F00201CB5044638
:10BC700081786A460C4803F0A1FE002812D1607852
:10BC80001C21484309491C2340181A46694603F001
:10BC900069FF064806494C30807A80000A582146E0
:10BCA000684690471CBD00001C210020B4300020D5
:10BCB0009815020010B504F0F1FD002000F0BAF96B
:10BCC00000F01CF803490120086000F02FF800F094
:10BCD00003F810BD542000201CB56A460521054814
:10BCE00003F06CFE002320220349684604F05EF84E
:10BCF0001CBD000024200020582F00200EB50A484B
:10BD0000032101700021417002228270C170012262
:10BD100002714171019100900620694608816846D0
:10BD2000FDF7B2F90EBD0000102E002010B5012065
:10BD300004F084FC10BD0000F8B5054608206946F3
:10BD4000088001236A461D492846AADF1C4800686E
:10BD50008047B12044DF002803D000221146FEF7BF
:10BD600005FC11DF002803D000221146FEF7FEFB80
:10BD7000144C606913DF002803D000221146FEF73F
:10BD8000F5FB284600F086FF01210F4A8805106068
:10BD90000E4803680D4D002080350A4682401A4245
:10BDA00004D0C606F60E0A46B2402A60401C20287F
:10BDB000F3D3606900F00CF8F8BD000028330020D0
:10BDC000982100200010001080E200E000E100E077
:10BDD00010B5FCF78FF910BD7CB5134E00250C464D
:10BDE0003060002918D06946002000F093F8002840
:10BDF00019D101A9012000F08DF8002813D168465F
:10BE000001790020002901D0022004E06946097868
:10BE1000002900D00B2020607068002802D1FEF7B6
:10BE20008FF8054628467CBDA820002010B5114C8F
:10BE30000188606810290DD011290AD1401E606068
:10BE400007D1FEF77DF8002803D02168002900D033
:10BE5000884710BD002808D10E22022100F0C8F842
:10BE600000210F22084600F0C3F86068401C6060A3
:10BE700010BD0000A820002010B5032000F04EFAED
:10BE8000002801D0062800D1002010BDF8B50746D3
:10BE90001D4800230068B84215D11B481B4E0C38C2
:10BEA0001B4D002923D03246526801290CD00229AB
:10BEB00009D1012068701446002C04D0696900295A
:10BEC00001D020468847F8BD6B703468002A09D03D
:10BED000A9681E2251430E4A8068FEF7F3FE00282F
:10BEE00000D12F700A48B16818300160E4E780681B
:10BEF000FEF724FF0648B46818300068A042E2D17B
:10BF000068780028D8D0F8BD68150200C02F00203E
:10BF10008C2000200022002802D00A7000207047E8
:10BF200005480069C2430548037801209840104045
:10BF300000D001200870F1E70005005068150200EC
:10BF400070B5001F264C274D0300FDF754FA0E086C
:10BF50001212121212121212313A43132D1213211D
:10BF6000208A76DF082804D0002802D0642002F05E
:10BF70000FFB70BD00F058F806280FD0082810D02D
:10BF80000028F6D1042000F055F800200F2160733E
:10BF90000246C9032869FEF795FE70BDFFF78AFEC9
:10BFA00070BD05F083F870BD142000F043F8DBE7A6
:10BFB00001206073162000F03DF874DF00220A496A
:10BFC000E8E7172000F036F8042060731321208A78
:10BFD00076DF70BD0021054A0846FEF771FD70BD91
:10BFE00000200020A012020066660100C5A3010027
:10BFF00003460020002B0BD10A4B012A02D1012954
:10C0000008D0002200290AD0012904D0022904D036
:10C010000720704710221A6070475A6070479A6074
:10C0200070470000C02F00200148406870470000A2
:10C030008C20002010B5054A0146127B0020D20753
:10C0400002D0084600F052F810BD00008C200020FD
:10C0500070B50E461F4905468E60CD6000204A61CE
:10C06000A9071DD5002405E00D2202212046FFF777
:10C07000BFFF641C21460143F6D0002810D172088E
:10C0800001211548FEF7F8F9002809D1FEF7E0F97B
:10C09000002805D11048114A00210838FEF7B4FDE8
:10C0A000E90706D00E4900228A6001221206CA6002
:10C0B0008A6100280DD108480A4A00211038FEF78D
:10C0C000A3FD002805D10448074A01210C38FEF7DA
:10C0D0009BFD70BD8C2000206C15020049C301003F
:10C0E0000005005085DF010039A40100F8B50546C0
:10C0F00085487D228068012481000026D2004118F5
:10C100002406824F2B00FDF776F91B0F17173B4AC9
:10C11000566BE87BE88C909790979EA3A3A3A3A36C
:10C12000CCD0EAF99E9EE8000020B86076490A6902
:10C130009443FC604860D0E00020B860F860796803
:10C14000C90108D5B860FC60022D02D1E120C00011
:10C1500008E06F4806E0F860BC60022D01D1642061
:10C1600000E00A206849FF244D60410CC003F5340B
:10C17000002300195941FCF72DF80022014629E05F
:10C180000020B860F8607968C90104D5B860FC6027
:10C1900019204001E6E7F860BC60C820E2E7002013
:10C1A000B860F8607968C90102D5B860FC60D0E772
:10C1B000F860BC60D5E70020B860F8607968C90114
:10C1C00002D5B860FC6001E0F860BC604E4851499F
:10C1D0004560002250480068FEF774FD06467CE08A
:10C1E0000020B860F8607968C90102D5B860FC60C9
:10C1F00001E0F860BC604448002246494560E9E738
:10C200000020B860F8607968C90102D5B860FC60A8
:10C2100001E0F860BC603C48002201214903456010
:10C22000D8E70020B860F8603CE0796822468A438D
:10C23000BA602140F960A0E7786822468243BA607C
:10C240002040F860C5E700205BE02F48456044E0EF
:10C2500031484068FEF772FD06461420401B01D0AD
:10C26000002E07D00021B960274802692240FA60F9
:10C27000016132E0244D01282C610CD9C8214843CA
:10C280006421FBF77DFFA9680022414322484068F2
:10C29000FEF718FD06460020F86028692040B860C7
:10C2A0001BE00020B860FC60CFE77868C00120D5B3
:10C2B0000020B860FC6096201349FF244D60410CBB
:10C2C000C003F534002300195941FBF783FF0146F1
:10C2D000114800220068FEF7F5FC3046F8BD78688A
:10C2E000C00106D50020B860FC6019204001E3E7DA
:10C2F00004E00020F860BC601420DDE70020B86096
:10C30000F860F860BC60A0E78C20002000050050B9
:10C310004C0400009A1900005C15020008490968E5
:10C320008A00084952181168C007C00F00D00320C6
:10C3300003231B0499430004084310600020704746
:10C34000681502000007005010B500780221FFF7C1
:10C350009DFD10BD10B50648002141718171142169
:10C360000171054800220349C069FEF7ABFC10BD0E
:10C3700000200020BE7F0000A012020070B52248FD
:10C380000022417900290ED183795B1CDBB28371D5
:10C390000479A34207D982711C48FEF73FFA1120A5
:10C3A00003F05EF870BD194C194D203C0B00FDF7F1
:10C3B00022F8040406111E03F4E701210BE0022118
:10C3C00041711248FEF72AFA112003F049F80022C1
:10C3D000104915E0032141710C48FEF761FA3D2236
:10C3E00000210A48FEF73AF90022294608E0427186
:10C3F0000648FEF713FA112003F032F8064900222E
:10C40000E069FEF75FFC70BD00200020C012020052
:10C41000D7030000F6080000CD8C00000022D243B4
:10C42000830004490428CA5002D308182030027738
:10C430007047000064310020F0B50025ED43002A6C
:10C4400002D00023042601E0042308260B4C04E05C
:10C450009F00E7597F1C04D05B1CB342F8D32846E9
:10C46000F0BD26185DB2203635709E00A151002A1D
:10C47000F5D1E11820310877F1E7000064310020A0
:10C480000249091820200856704700006431002036
:10C49000FFB58FB01E4615460F0004D1002211468D
:10C4A0001046FEF763F8002D04D100221146104615
:10C4B000FEF75CF81C216846FBF7D5FE684601785C
:10C4C00002200143684601700024019403940494FF
:10C4D0000594012108A80694817068460F9901848B
:10C4E00007943178017771784177807FF92108408E
:10C4F000F721801C0840EF210840410849006846A8
:10C500008177142109A8FBF7AEFE08A8099007A8B7
:10C510000A9068468585C485058604480D9709AA52
:10C5200069460088189BA2DF13B0F0BDBC20002034
:10C53000F8B53E481422017851430C18E0680C21EC
:10C5400048433A492769CC3140180589418900910F
:10C55000241D466803F0D2FA01463846FBF710FE68
:10C56000002932D000200099A2884D436188AE197D
:10C570008918CD1900222E4900288A6109D003F0BC
:10C58000BDFA6188884222D0B54202D1A088002835
:10C590001DD0A06804281AD003F0B0FAA188CA19E7
:10C5A00001461046FBF7ECFD214C8808606103F062
:10C5B000A5FA01462846FBF7E3FD002911D000202B
:10C5C000B5422FD000280ED02CE00120CBE703F09D
:10C5D00095FA01463846FBF7D3FD1549C86103209B
:10C5E00021E00120ECE7ADB2B7B203F087FA0146D3
:10C5F0003846FBF7C5FD064603F080FA014628469B
:10C60000FBF7BEFD864201D1781B09E003F076FA04
:10C61000064603F073FA01462846FBF7B1FD701A8F
:10C620008008A061022004F023F8F8BD0432002045
:10C630006C21002010B507481422017851430818D6
:10C640000079042802D000F059F810BD012004F050
:10C650000FF810BD0432002010B50B4814220178E9
:10C6600051430818094AC18891620079012806D00F
:10C67000032801D0042801D1FFF75AFF10BD012083
:10C6800003F0F6FF10BD0000043200206C210020F2
:10C6900014225043054A002180180171C1800322F1
:10C6A0000161C260416101817047000004320020D5
:10C6B000F8B5104C069E65780A2D19D027787D199B
:10C6C0000A2D00D30A3D14277D432D1928716A6174
:10C6D00003C92961E860EB802E816078401C60709E
:10C6E0000548C068002801D1FFF7B6FF0020F8BD5B
:10C6F0000420F8BD043200206C21002010B50D4C40
:10C7000014212078484301190020091DFDF764FF1A
:10C710002078FFF7BDFF6078401E60702078401CD5
:10C72000C0B220700A2801D100202070002003F040
:10C730009FFF10BD04320020F8B52348C1680029CE
:10C740003ED00E6821494C680769C078E11B0D0294
:10C750002D0AED1C002814D101201D4A0004506050
:10C760001B4A403A50601B49400008601A49086063
:10C770001A49012008602F20FBF7D6FC124901203E
:10C78000C870B54200D23546E81900020F4B000AC6
:10C79000403318600D4A5168001B091B0902090A41
:10C7A0000002000AC91C814209D9506818602F2074
:10C7B000FBF7BAFC01200749400480390860F8BD46
:10C7C00003F092FDF8BD0000D021002000150140CB
:10C7D0004013014080E200E000E100E00010014071
:10C7E000F8B50646108814468446801D0D469842CA
:10C7F00001D90C20F8BD32880720062AFAD3192760
:10C80000FF01184BBA4201D99A42F3D17188062927
:10C81000F0D3B94201D99942ECD19A4203D099425E
:10C8200001D08A42E6D80521604629542088122189
:10C83000401C80B2208029542088401C80B2208077
:10C840004119308804F02CFC2188401880B22080E7
:10C850004119708804F024FC2188401820800020B1
:10C86000F8BD0000FFFF000010B5642001F090FE4D
:10C8700010BD0000F8B5154801F0FAFA134D002676
:10C880000C3D134C002806D0616900291AD0012004
:10C890000090684615E02878002804D061690029D6
:10C8A00010D00096F5E7687800280DD0A1680948F7
:10C8B00000220068FEF706FA002803D0A1690029CB
:10C8C00000D088472E70F8BD6168F0E73021002065
:10C8D00048310020B815020070B5094B04469E7A15
:10C8E000082000250E4207D00648844202D018894D
:10C8F000A04202D10020156070BD052070BD00006F
:10C90000F4300020FFFF00000C214843064910B519
:10C91000012240188272911E0181FF21C1720721FC
:10C92000FBF7A1FC10BD0000F43000200D49486861
:10C93000C005C00D14D0103807D50207120F083AF1
:10C94000920892005118C96904E08108064A8900DA
:10C95000891809688007C00EC1400806800F70471B
:10C960000420704700ED00E000E400E010B5134C37
:10C97000207900071FD4E069401CE061606900284D
:10C9800001D0042004E001F0A5FA002803D0022021
:10C9900003F0DCFF10BDA069002809D06068C10762
:10C9A00001D00320F4E70121084360600020EFE795
:10C9B000FFF740FE10BD03F0BDFF10BD6C2100204D
:10C9C00010B5084841680A0708D48A0702D5012231
:10C9D00011434160022003F0B9FF10BD03F0AAFF2C
:10C9E00010BD00006C210020F8B500260124154D73
:10C9F00024E00C20696870434718387821462A697A
:10CA00008140114218D08A432A6101F09FFE3A7892
:10CA10002146EB68914019400346934099420BD15F
:10CA20007978012901D0012100E00021BB68414053
:10CA3000002B01D010469847761CF6B22878864223
:10CA4000D7D3F8BDA0210020FEB50E46044681785C
:10CA50006A46234802F0B2FF002826D160780C21F4
:10CA6000204F4843C019807A40061FD4022E1DD0A3
:10CA7000012E1DD01C4DA0781C2148431B490023CA
:10CA800041181C226846A847002813D0022E0CD05B
:10CA900020780C21484313490C314018807A1449FE
:10CAA00080000A58214668469047FEBD114DE2E7D6
:10CAB000114DE0E7022EF8D060780C214843C019F0
:10CAC000817ABF221140817260781C214843054958
:10CAD000403941181C231A466846A847D8E7000089
:10CAE0001C210020F4300020B9080200F02F0020A3
:10CAF00088150200ADFD0100CDFC010070B50546B2
:10CB0000114A124800241C2363431B189B7EFF2BF1
:10CB100004D0641C072CF6D3104670BD0A78022A94
:10CB200009D01C2262431018FD22827607221030A1
:10CB3000FBF780FB04E01C2161430818FE2181768D
:10CB40002C700022E8E7000043800000F02F002056
:10CB5000F7B505250F4F06460024002E0AD01C20ED
:10CB60006043C019072231461030FBF78EFB0028C6
:10CB700007D00AE01C206043C019018B0298814253
:10CB800003D101980025046002E0641C072CE4D363
:10CB90002846FEBDF02F00207CB5054681B26A46CE
:10CBA000074802F00BFF040008D16021684602F03C
:10CBB0003FFF040002D1284602F098FE20467CBDCB
:10CBC0001C21002070B50C460546002A02D06420C6
:10CBD00001F0DEFC2078152802D12846FDF788FCFC
:10CBE000002070BD1FB56946087302F08DFF002854
:10CBF00002D0642001F0CCFC03A800F017FC002850
:10CC000002D0642001F0C4FC01A805210130FBF72B
:10CC10002AFB6946487901221043E1210840DF21BF
:10CC20000C30084069464871072088711020C8718F
:10CC3000054800900A71054800F04CFD002802D01C
:10CC4000642001F0A5FC1FBDC5CB01000E20002013
:10CC500001B50549684600F053F9002803D00022C9
:10CC60001146FDF783FC08BD9C21002010B5096822
:10CC700000290AD003220121FEF754FD002803D029
:10CC800000221146FDF772FC10BD0088FFF754F832
:10CC900010BD000010B58AB000242649009400F0B1
:10CCA00093FB002817D101A9224800F035FB00288A
:10CCB00013D021491F4800F01BFC002803D000229C
:10CCC0001146FDF753FC1C4800DF002803D000226A
:10CCD0001146FDF74BFC0AB010BD05990722164816
:10CCE0001031FBF7A7FA14481022C01D0599FBF775
:10CCF000A1FA1148112218300199FBF79BFA0E484E
:10CD000001990A222A301231FBF794FA0A4800DF0F
:10CD1000002803D000221146FDF728FC01200090D6
:10CD2000042008906846099007A90794014800F07C
:10CD3000E3F8CAE79C210020F4320020704700008D
:10CD400001490860704700009821002030B58FB07D
:10CD500005461C216846FBF786FA694608780821D3
:10CD6000084310221043694608700024019403947C
:10CD7000049405940694A87908A988701448694613
:10CD80000884601C00070794000F0C771030487768
:10CD9000887FF9210840F721801C084010430121B9
:10CDA000084369468877142109A8FBF75CFA08A8AC
:10CDB000099007A80A9069468C851720CC850886BB
:10CDC0000D942B46A888103309AAA2DF0FB030BDFE
:10CDD0003115000030B58FB005461C216846FBF7C1
:10CDE00042FA69460878042108436946087000241D
:10CDF00001940394049405940694A87908A9887072
:10CE0000144869460884601C00070794000F0C77DB
:10CE1000103048778A7FF9200240F720921C0240A8
:10CE2000EF200240012002438A77142109A8FBF772
:10CE30001AFA08A8099007A80A9069468C85142058
:10CE4000CC8508860D942B46A888083309AAA2DF52
:10CE50000FB030BD32150000F0B58FB00F4605465B
:10CE60001C216846FBF7FFF968460178022631432A
:10CE70000170002401940394049405940694A97904
:10CE800008A88170174968460184601C0107090FD2
:10CE900068461031079401770020014668464177C3
:10CEA000817FF9200140F720891C0140EF200140DB
:10CEB0000120014368468177142109A8FBF7D3F9C3
:10CEC00008A8099007A80A9068468685C485068642
:10CED0000D972B46A888203309AA6946A2DF0FB018
:10CEE000F0BD00003415000000487047918000003C
:10CEF0000048704791800000004870479180000012
:10CF00000C4A13780C4A002B11D0931D002905D030
:10CF1000002803D00078002809D101E018467047A6
:10CF2000064B1B68002B02D008700020704710468B
:10CF3000704700000C210020088000000031002014
:10CF4000F0B5054693B000200290FF24ED480E9402
:10CF5000007800284BD0EC4F3868002847D001A853
:10CF600000F056FA002803D000221146FDF7FEFA21
:10CF7000281D05902A2069460883FF200026887115
:10CF80000E710396E04C28880C3C10280ED0A8881F
:10CF900003AA0221FFF7A0FC002807D103980C2167
:10CFA00041430919CA7A69468A714871288813224F
:10CFB00017287CD00FDC10281BD0112853D0132841
:10CFC00076D0142813D103980C2148430019C07A55
:10CFD000FF2871D08DE0CD4918286BD01C286AD06D
:10CFE000522804D1B87A8000095801A8884713B0A4
:10CFF000F0BDC74F03AA01213846FFF76DFC00289A
:10D00000F5D103990C2048430222001982721123A2
:10D010006A4613745171A98801810722A91DFBF783
:10D0200009F9287DC10707D04108B6480830405C9F
:10D03000FF2808D00E9006E03A460EA9A81DFFF77B
:10D0400087FD00280ED103990C22514309190E982F
:10D05000C8728A7A08231A438A726946887101A8BD
:10D06000FEF704FE39E103980C2148430119887A40
:10D07000FD2210408872010706D5C0090DD000219D
:10D0800001A8FFF7E1FC08E068468079FF2804D09A
:10D0900002F02CFCFF206946887103980C22504353
:10D0A00010210019817212206946087415E17FE091
:10D0B00030E001E0D5E00EE1EA890EA90020FFF79B
:10D0C00047FD00280ED103980C22504300190E99F9
:10D0D000C172837A0822134383726846817101A862
:10D0E000FEF7C4FD03980C2148430019C07AFF28BD
:10D0F00006D003981C21484383494C3940180290BC
:10D1000003981C21484383494218A88800230299A8
:10D1100082DF6CE768460274039B0C2058430119B8
:10D12000887A042210438872C87AFF2830D01620EB
:10D13000694608742420434373481A21303818186C
:10D140000830FBF790F803980C2148430019817AC6
:10D1500040221143817203990C2200204A430A9015
:10D160001219D27A1C235A436A4B0C90D2180B9294
:10D170001C2251431A46C43289180791089009901D
:10D180003A1DA88807AB00217FDF0028C1D1A4E0A9
:10D190000EA8FFF7B3FC002801D00646DBE769467E
:10D1A0000E98887103990C2251430919C872D2E76D
:10D1B000787A400840007872039A0C2094464243E3
:10D1C00011198B7AFB2003408B7214206F46387440
:10D1D000A879002804D0C87AFFF7DEFCAE797CE09D
:10D1E000E879400779D5B879FF2876D008273B43FE
:10D1F0008B72EB7A9B0708D51C2503466B43454D84
:10D200005B199D7E6D086D009D76CB7AFF2B64D0F7
:10D21000A25C022A10D01C2250433E4D0722401926
:10D220001030FBF707F8684680791C214843401905
:10D23000817EFD2211400EE061461C225143324A9C
:10D240004C3A89184A8A1C214843324940180283C3
:10D25000817E490849008176012101A8FFF7F4FB8E
:10D260003BE0A8790209012A23D10007000F012819
:10D270001FD103980C2242431219927A120718D533
:10D28000242148432049303940181A210830FAF740
:10D29000EAFF16206946087403980C2148430119D7
:10D2A000887A602210438872787A02210843787263
:10D2B0000FE003980C2250430019827A80231A430E
:10D2C000827215206A461074B87A8000095801A845
:10D2D0008847002601E068460274324604A901A886
:10D2E000FDF74AF96846007C122800D07FE60398D3
:10D2F0000C2141430919897A0129F7D0FFF704FB72
:10D3000075E600000C21002000310020A815020065
:10D31000FFFF0000F02F0020F0B5064626480C461F
:10D320000178264889B000293FD0811D002E3ED0CB
:10D33000002C3CD03178002937D1214900250968DB
:10D34000002932D0B078072833D21C211D4F484322
:10D35000C019807EFF282CD0E560B0786561484315
:10D36000C01920611648A5600C30606068462060D6
:10D370001148B17807AA103002F020FB002814D120
:10D380001C231A4607A9684602F0ECFB00280CD1C2
:10D39000E560B1781C225143C919656121610849D2
:10D3A000A5600C3161606946216009B0F0BD084696
:10D3B000FBE702480830F8E70C2100200880000055
:10D3C00000310020F02F002030B50446002903D0A2
:10D3D0000878002814D101E00B4830BD0B48002329
:10D3E000006800280CD0094AFF2088700C3A158983
:10D3F0000520A542F1D14B70D07A8870002030BD55
:10D400000148801F30BD00000E8000000031002068
:10D41000002806D0FF21017041708170C17000208A
:10D4200070470148704700000E800000F0B585B0DD
:10D43000040036D0294800250560457285722846CB
:10D44000FFF762FA254824213038FAF70CFF00264E
:10D45000FF27304602F04AFA21488755761C072EEE
:10D46000F7D36021684681800721C1801D481C498F
:10D4700000900831684602F0CBFB00280FD1184E0F
:10D480000120083E3070207800280CD0694688883A
:10D49000C988484381B23046103002F0C9FA05B05D
:10D4A000F0BD1148FBE7114F00240D48A1B202AABC
:10D4B000083002F083FA002809D11C206043C0190B
:10D4C00000231C2202A902F04DFB002801D0357078
:10D4D000E5E7641C072CE8D3E1E7000000310020F9
:10D4E0001421002071D501000E800000F02F0020D3
:10D4F0000B4610B51A491B4A0978002920D0911D06
:10D50000002805D0002B03D00178002918D101E0B4
:10D51000084610BD14490968002911D0114A8178C4
:10D52000D21EFF290ED01C20414310480918887EC6
:10D53000800705D4072218461031FAF77BFE002237
:10D54000104610BD4078FF28FAD00C214843064908
:10D550000C394118887A8007F2D507221846ECE783
:10D560000C2100200880000000310020F02F002056
:10D57000FFB555488FB00068189F1E46002851D04F
:10D58000602F4FD86846FFF743FF002803D00022E2
:10D590001146FCF7EBFF0024684604700471254631
:10D5A00005970696A9B20DAA484802F007FA002886
:10D5B00006D108220DA90F98FAF767FE002819D0A6
:10D5C0006D1C072DEED3684680780790FF2829D080
:10D5D00010982025032810D03D481C21301AFAF756
:10D5E000CFFD012707282DD204A80290119800280A
:10D5F0001AD021E068468570E5E7602F03D040200F
:10D600006946087101E06846057169460879032199
:10D6100008436946087104A8029001A96846119A56
:10D62000FCF7AAFF13B0F0BD079938468840274998
:10D63000103949680842F5D0079803F04BFD684659
:10D64000057138E020481C214C38301AFAF798FD53
:10D6500000280BD01C4D2421303D701BFAF790FDA3
:10D6600000281AD0402069460871DBE704A8029020
:10D6700068460571447014480A940C300B90583871
:10D680000790684680781C2148431149401808904B
:10D6900007A80690182005900DE03021684601711A
:10D6A0004470C77008480C38807A800703D4284635
:10D6B0002421FAF7D8FD109869460228087901D08C
:10D6C0000221A5E73843A5E7003100201C210020F6
:10D6D000F02F002070B5064618480D460078002847
:10D6E0000ED01749002E0ED0002D0CD0286800282F
:10D6F00009D0144C2168002907D011480A3870BDA0
:10D700000F48801F70BD084670BD20600522691D4E
:10D71000201DFAF78FFD2879A072207A0221400897
:10D7200040000843FB2210402072E0790123184397
:10D7300008431040E0710020307070BD0C210020C3
:10D740000E80000000310020F0B5284A284B1278E6
:10D75000002A2BD09A1D00280BD0002909D00C6874
:10D76000002C06D08C68002C03D0007800281DD136
:10D7700001E01046F0BD1F480068002816D00023C5
:10D780001C4C1A4618460C3CE57A854202D1A57A13
:10D79000AD0724D40D7B954211D91C2506466E4356
:10D7A000154D7519AE7EF60702D008E01846F0BD9B
:10D7B0008E689700F5510D4D0835A854521C0D790F
:10D7C0009D420CD91C2506466E430B4D7519AE7E45
:10D7D000B60704D49F0010350E685B1CF551401C41
:10D7E0000728D1D30B710A730020F0BD0C21002053
:10D7F0000880000000310020F02F002010B50E49F5
:10D8000000234A788C78A24212D0521CD2B24A70BD
:10D81000022A00D14B704A78074B920018339A586D
:10D820000260086910180002000A0861012010BD9A
:10D830000360002010BD0000D02100208268838892
:10D840001A4003689A5C0A708168491C81607047BD
:10D85000C26883881A4003689954C168491CC16032
:10D860007047000010B5002803D0112802D0FCF743
:10D87000C9FE10BD0248082241681143416010BD35
:10D880006C21002010B51C4C2046E168406801293D
:10D8900006D0022929D0032912D1000717D513E099
:10D8A000000711D415481422017851430818C18883
:10D8B000A28C891A0904090CC18002D002F0FEFF73
:10D8C00010BDFEF71BFF10BD00F09CFD10BDE06910
:10D8D000401CE06100F0FEFA002803D0E06802F08E
:10D8E000C7FE10BDFEF7A6FE10BD206904498000EA
:10D8F0000858804710BD00006C2100200432002031
:10D900004016020010B528DFFFF7ACFF10BD10B5C0
:10D9100029DFFFF7A7FF10BD10B50446C0B2FDF721
:10D9200083FA204610BD00000EB51120694608722A
:10D93000052217A102A87CDF002802D0642000F095
:10D9400027FE0920800178DF002802D0642000F043
:10D950001FFE002000900190F02168460180FF2109
:10D9600001314180022181804B21C900C1807ADFD1
:10D97000002802D0642000F00BFE0749082008565A
:10D9800077DF002802D0642000F002FE0EBD000008
:10D990004D696D6173000000002000200020704779
:10D9A0000020704700207047F8B5064640782421D3
:10D9B00004464C4324490C2250436118224A002556
:10D9C0004B6824328018AE462F469C46002B0CD064
:10D9D000827A1346D20908D05A0606D40D461A4A4E
:10D9E000614689B2175908358E46174C0089243490
:10D9F0003B4672462946A9DF0B2819D0002800D0E3
:10DA00001248012F13D170780C2148430019008966
:10DA10000F4AA7DF00280AD00E49884212D00828F2
:10DA200010D0891C88420DD011280BD00020F8BDE1
:10DA300070780C2148430123001900897246294659
:10DA4000A9DFE0E70148F8BDD030002041800000A8
:10DA5000FFFF00000230000070B50C460146607800
:10DA60002422084D50434019382302F07BF8002847
:10DA700007D161782422514349194A68521C00D1C8
:10DA80004A6070BDD0300020F3B589B00D461A2031
:10DA90006946888368780C2103274843224E3B4619
:10DAA0008019008907AA6946AADF002838D168785A
:10DAB00024214843741A001969468A8B0830FAF702
:10DAC000E4FB0028687807D02421484301194968FD
:10DAD00000290DD0154E0CE00C2141438919897A9B
:10DAE00089071DD4242148430019FAF7BCFB17E02D
:10DAF0000F4E27506846828B6878242148430019CE
:10DB0000426068784843001969460830FAF792FB8A
:10DB10006878242148430119382324220998B04702
:10DB200000200BB0F0BD0000F4300020ADFD01007E
:10DB3000CDFC010010B5FFF737FF10BD10B5FFF7A2
:10DB40008BFF10BD10B5FFF79FFF10BDF8B507465E
:10DB5000104E0125BD403068FDF7F0F800280DD1CA
:10DB60000D4C2069284207D1384600F0EFFD00280F
:10DB7000E06804D0284303E0A8432061F8BDA8432F
:10DB8000E0602069002228432061A1683068FDF729
:10DB900099F8F8BD54160200A021002070B5464C3B
:10DBA000464AE57A1146143912782B00FBF723FC1C
:10DBB000071505161F2730461500002801D040A183
:10DBC0003FE03D4810223D492E30FAF733FB2FE06D
:10DBD0003A4908464C38FDF7CDFF70BD002801D00A
:10DBE0003BA12EE0888AA08201F028FD20E00028D9
:10DBF00001D03BA125E03048097D403006E00028F7
:10DC000001D03BA11DE02C48097D423001700FE09E
:10DC1000002801D03AA114E01046FAF7A0FC3C49D4
:10DC2000FAF7A2FB3B49FAF7DCFBFAF79FFC6082AC
:10DC300039A12248FAF736FB0222C9E7002808D0AA
:10DC400036A11E48FAF72EFB1C48FAF717FB82B2E2
:10DC5000BEE71300FBF7CFFB0805071D202326298D
:10DC60002C09002000E0042020722BA11348FAF7B1
:10DC700019FB1249022208464C38FDF77BFF0820A9
:10DC8000205677DF0D4808216156A038FDF7C8FF00
:10DC900070BD0320C043E7E70720C043E4E70B2043
:10DCA000C043E1E70F20C043DEE71320C043DBE7BA
:10DCB0002720C043D8E7000000200020FC2C0020D3
:10DCC0004641494C3A54727920616761696E30006F
:10DCD0004641494C3A54727920616761696E31005E
:10DCE0004641494C3A54727920616761696E32004D
:10DCF0004641494C3A54727920616761696E33003C
:10DD00004641494C3A54727920616761696E34002A
:10DD10000000C8420000203F4F4B00004641494CE4
:10DD20003A54727920616761696E350070B51B4C99
:10DD3000207900072ED41A481422017851430D1877
:10DD40002E6901F0DBFE0146E8882A89761E8018DC
:10DD50008019FAF715FAA1690025002909D0E169AF
:10DD6000814206D16561606801210843606000203E
:10DD70000AE000F0AFF8002802D00220656103E05D
:10DD8000A069002803D0032002F0E0FD70BDFEF77B
:10DD900051FC70BD02F0CEFD70BD00006C21002072
:10DDA00004320020F8B51E4C2078002837D02069B6
:10DDB000002807D00026E068002805D00025002EA6
:10DDC00004D013E00126F6E70125F8E7684651DFA5
:10DDD000052806D0002806D000221146FCF7C6FB15
:10DDE00004E0012602E0216900988847002D12D145
:10DDF000608869460880A06861DF052806D0002891
:10DE000006D000221146FCF7B1FB04E0012502E038
:10DE1000E168A0688847002ED8D0002DCFD0F8BD8B
:10DE2000F42100200121814003488068014201D093
:10DE300001207047002070474021002001218140CF
:10DE400003480078014201D001207047002070474C
:10DE500040210020014610B501208840FCF7F8FF62
:10DE600010BD01218140880700D0012070470000CB
:10DE7000418805480288914204D34088814201D8F4
:10DE80000120704700207047282100201048018C95
:10DE9000C9B2012917D1818C090714D1018D090656
:10DEA0000A0F03D1828D1206120F0ED0090F01291D
:10DEB00003D1828D1206120F07D0032903D1808D62
:10DEC0000006000F01D000207047012070470000BD
:10DED000C00F00F070B50E481422017851430C18A1
:10DEE000256901F00BFE0146E08822896D1E80182D
:10DEF0004019FAF745F90749CA69824206D38242B6
:10DF000002D18869002801D0002070BD012070BDB9
:10DF1000043200206C21002001218140880400D0BF
:10DF200001207047800701D0002070470120704712
:10DF300030B51588EC1C9C4201D90C2030BD022460
:10DF40004C5513881C255B1C9BB21380CD54138841
:10DF50005B1C9BB21380012807D0022807D003283E
:10DF600007D0042807D0072030BD002004E001209E
:10DF700002E0CC5401E00320C8541088401C1080FB
:10DF8000002030BD10B50448017BC90702D04068AD
:10DF9000FEF7ACF810BD00008C200020F8B52C492D
:10DFA000C8680A690C780F7989688646944600919A
:10DFB0003EE00099E20055182A7836E018235343D2
:10DFC0006968521CC918AB78D2B2934200D10022C2
:10DFD0000B68022B02D0032B27D123E04E680346A7
:10DFE000014603E0B14204D00B46096A00291CD067
:10DFF000F8E7002919D08B4208D1006A002805D122
:10E00000144F0126BE600026B44601270E68096A37
:10E010001962002909D00B689B190B6005E0017497
:10E02000006A00E000210028F9D169789142C5D149
:10E030002146641EE4B20029BBD1054962460A614B
:10E04000C8600F71704501D00120F8BD0020F8BDF7
:10E05000D021002000100140F8B5044631480026C8
:10E06000C168009107784EE02E48F90080680D18CD
:10E0700043E0002C02D02046246A1FE028781821B3
:10E0800041436A68401CC0B251182870AA78904277
:10E0900000D12E700A684868012A30D1027C002A1B
:10E0A0002DD18A684260CA6882600A69C260496983
:10E0B000C1611C490979002900D0466019494368AB
:10E0C0000A699C46991A0902174B090A994202D219
:10E0D0008268891807E06146511A09028268090AB4
:10E0E0008A4202D9511A016000E0066046600121AF
:10E0F00086600174066202F045FD002CB9D12878D3
:10E1000069788842BAD138467F1EFFB20028ABD169
:10E110000448C1680098814201D00120F8BD002068
:10E12000F8BD0000D0210020FFFF7F0000209F4AA3
:10E1300088B0022183009B181960401C2028F9D365
:10E140009B489C4DC175014618390A78437D5A4059
:10E1500082744978827D5140C17428464C300FC882
:10E1600003936B4607C39448102104901030059127
:10E17000079106900323914A04A96846FCF706FE1E
:10E18000002802D0642000F003FA8D480126C66002
:10E1900046608C48002404608B48806B02F054FD7C
:10E1A0008A4A14213220FCF719FD002802D064208D
:10E1B00000F0EEF9864A87490320FDF749FF002861
:10E1C00002D0642000F0E4F900210846FDF704FEC7
:10E1D000002802D0642000F0DBF96846764904701C
:10E1E0002746002348224839082002F075FA002803
:10E1F00002D0642000F0CCF90094684601940670C7
:10E2000060DF002802D0642000F0C2F9724802F0FA
:10E2100059FA002802D0642000F0BAF96F4802F0E1
:10E2200073FA002802D0642000F0B2F9FBF748FD31
:10E230003846FEF7D7FC2021684681801F21C18027
:10E2400067485B4900900839684601F0E1FC002806
:10E2500002D0642000F09CF9FBF7A4FEFFF764FBFA
:10E2600002F05EF91C216846F9F7FDFF0520C003A6
:10E27000019002900421009468460173C4810474E3
:10E2800058480590584806906846FDF717F9002849
:10E2900002D0642000F07CF9112001F0B5F81120C3
:10E2A00001F0DEF84349182234316846F9F7C2FF1D
:10E2B00040484E4A694620300394FCF72DFB002865
:10E2C00002D0642000F064F903210022C903E86948
:10E2D000FCF7F8FC112001F0C3F80E2001F094F8CF
:10E2E0000F2001F091F8102001F08EF80E2001F0BF
:10E2F000B7F80F2001F0B4F8102001F0B1F80120B8
:10E3000047DF0320FBF75AFF01200007016941693D
:10E310000069374840690F24A40400222146686937
:10E32000FCF7D0FC002802D0642000F031F9002076
:10E3300002F068FB2F480660002221466868FCF75F
:10E34000C1FC002802D0642000F022F9296FA86ED9
:10E3500002910090284A01966946082000F0A4F92D
:10E36000002802D0642000F013F90121082000F0F9
:10E370004DF9224A6946092000F096F9002802D09A
:10E38000642000F005F90121092000F03FF9002286
:10E390001B49A868FCF796FCFCF710FC48DF002836
:10E3A000FAD0642000F0F4F8F6E70000000700500F
:10E3B0002C200020A01202003C2C0020F50F0200AF
:10E3C000002000400025004040050040302700208C
:10E3D00041BF0100CD0C0000C5B801006109020079
:10E3E00015FA010091F7010069C80100EBFE010078
:10E3F0000010001000700040858B0100B58B0100FB
:10E40000DF7F000010B50448082241689143416055
:10E41000C06802F02DF910BD6C21002070B51446C3
:10E4200082880E4605462088111D4118921C99428B
:10E4300001D8FE2A01D90C2070BD521C325420880C
:10E44000FF21401C80B2208031542088401C80B2C3
:10E4500020808119288802F023FE2188401880B28C
:10E460002080AA88002A09D0A968002908D080192C
:10E47000F9F7E0FE2088A98840182080002070BDB0
:10E48000072070BDF8B50F460168144605460129FE
:10E4900002D12879002806D02088821C9A422DD8E3
:10E4A000012902D006E00720F8BD29794118891C0E
:10E4B000994223D8181A801E86B2684606802188A1
:10E4C000B81C081869467DDF0028EDD128680228AD
:10E4D00005D169460988B14201D809210AE008211D
:10E4E000012805D12879B04202D86A46108001E09F
:10E4F0006846068068460088FE2801D90C20F8BDD1
:10E500002288401CB8542088401C80B22080395496
:10E5100020886946401C20800988401820800020FF
:10E52000F8BD0020704700207047002070470000B1
:10E5300010B501788A070179920F4907C90E8068E2
:10E5400011438207540E0C438103890F03D003212A
:10E55000090408400443002000F00AF80349486811
:10E56000FF22120210402043486010BD0075004099
:10E5700010B5064902024B68FF242402A3431A4344
:10E580004A60002800D00120086010BD00750040DE
:10E5900031B5054C04E0401E00902046F9F79AFD85
:10E5A00000980028F7D138BDE70300008207D30E9A
:10E5B000FF229A408907090E10B5994000280BDA0E
:10E5C00003071B0F083B9C080C4BA400E318DC69F5
:10E5D00094430C43DC6107E08408094BA400E41871
:10E5E000236893430B432360C106C90E0120884072
:10E5F000044908600449086010BD000000ED00E017
:10E6000000E400E080E200E000E100E0F3B581B06A
:10E610000F46019801F086F9012400281D4E01984B
:10E6200017D0FDF72DFF80192030007F80090328C7
:10E6300002D0012806D007E01748006901998C40F4
:10E64000204201D1022100E00321019800F0F8FEF0
:10E65000FEBD01F073F90028FAD00198FDF710FF14
:10E6600005468100C81D0D4AF93089180A69224300
:10E670000A610B49401800210160002FE8D0019881
:10E68000FDF7FEFE800030580028E1D00548AC4080
:10E690004460FEBD6431002000050050006500406C
:10E6A0000060004000630040FEB5044623480E466B
:10E6B0000019202141560027C8171346401C01D0DD
:10E6C000082738E0727A19462046FDF7B5FE054660
:10E6D000401C2FD0307A002807D01948A100091813
:10E6E000086802229043086007E000217368204612
:10E6F00000910A46019100F03FFE707A002810D088
:10E700001048AA001018317802690F4B1A400261B4
:10E71000E206D20C8907890B0A4301690A430261A8
:10E7200009E00648327840192030017F92011143F8
:10E73000017700E004273846FEBD00006431002068
:10E740000007005000650040FFE0FCFF0349096935
:10E75000C140C807C00F00D001207047000500501D
:10E7600070B5114D686C002801D0082070BD0020E4
:10E77000411E2A182032401CC0B211702028F8D344
:10E7800000242046FDF74AFE641CE4B2082CF8D3AE
:10E7900003210620FFF70AFF01200449C007486053
:10E7A00001206864002070BD6431002000630040D7
:10E7B0000248406C002800D00120704764310020DE
:10E7C000FEB5044620480D4600190026203081572A
:10E7D000491C01D0082633E0297A00291DD00122E6
:10E7E00000212046FDF728FE411C14D08300174865
:10E7F0002A78181829790369154F3B40036103698A
:10E80000E706FF0C9207920BC907C90A3B430A436C
:10E810001343036104E0042612E00121C94301709F
:10E8200001206A68A0400B49012A0BD0C860002172
:10E8300000910B46012201912046114600F09CFDFB
:10E840003046FEBD8860F2E764310020006500407C
:10E85000FFE0ECFF0005005010B5FDF711FE024986
:10E860008000401810BD00000060004005490918F4
:10E870002020085681000448081801698908890089
:10E8800001617047643100200065004009490918A2
:10E8900020200856810008480918086903221043FF
:10E8A0001F22120202430A6100BF00BF00BF0861BD
:10E8B000704700006431002000650040002900D04E
:10E8C0000121074A1218202010568200054812180C
:10E8D000106901231B05984309050843106170471F
:10E8E000643100200065004010B5044601F026F8B0
:10E8F00000280DD02046FDF7C3FDC0B2FDF78EFD08
:10E900002046FDF7BDFD074A002180008018016107
:10E91000054800210019C94320300170204600F04D
:10E9200061FD10BD0065004064310020F1B5042098
:10E9300082B01F4E00250090002069460871FDF747
:10E94000F5FF0746012809D001A836DF02280FD0BD
:10E95000002803D000221146FBF708FE0124AC403A
:10E9600034420FD02846FFF75DFA002802D009E0B4
:10E9700072B6F3E70F488168214381600298056011
:10E9800000200090012F0BD062B66846007937DF77
:10E99000022805D0002803D000221146FBF7E6FD2F
:10E9A0000098002803D0A6436D1C002EC4D1FEBDE4
:10E9B000FF3F00004021002070B514460D000646C0
:10E9C00011D0002C0FD0FFF7A7FA00280DD0304649
:10E9D000FFF728FA00280AD00648F1000818056158
:10E9E0004461002070BD0E2070BD072070BD08205E
:10E9F00070BD000000F5014010B50446FFF72AFA8B
:10EA000000280FD02046FFF787FA002804D02046C0
:10EA1000FFF708FA002807D001200449A0408860C9
:10EA2000002010BD072010BD082010BD00F50140DA
:10EA300010B50446FFF70EFA00280FD02046FFF766
:10EA40006BFA002804D02046FFF7ECF9002807D025
:10EA500001200449A0404860002010BD072010BDDF
:10EA6000082010BD00F5014038B50546FFF754FAFF
:10EA7000002829D001241648AC4084600020694653
:10EA80000870FDF753FF0546012809D0684636DFB8
:10EA900002281BD0002803D000221146FBF766FD98
:10EAA0000C488168A1438160012D0BD062B6684695
:10EAB000007837DF022805D0002803D00022114655
:10EAC000FBF754FD002038BD072038BD72B6E7E7DC
:10EAD00000F5014040210020F8B506460C460846E6
:10EAE000FFF7BFF9002833D02046FFF7A7F9002829
:10EAF0002CD03046FCF7ACF9002829D0002069461C
:10EB00000870FDF713FF0546012809D0684636DF77
:10EB100002281FD0002803D000221146FBF726FD53
:10EB20000D48A1000818016831430160012D0BD088
:10EB300062B66846007837DF022805D0002803D087
:10EB400000221146FBF712FD0020F8BD0820F8BD99
:10EB50000720F8BD72B6E3E700F80140F8B50646B5
:10EB60000C460846FFF77DF9002833D02046FFF712
:10EB700065F900282CD03046FCF76AF9002829D026
:10EB8000002069460870FDF7D1FE0546012809D02E
:10EB9000684636DF02281FD0002803D00022114625
:10EBA000FBF7E4FC0D48A10008180168B1430160BF
:10EBB000012D0BD062B66846007837DF022805D0F9
:10EBC000002803D000221146FBF7D0FC0020F8BD3E
:10EBD0000820F8BD0720F8BD72B6E3E700F8014051
:10EBE000F1B5042082B0032600250090002069467C
:10EBF0000871FDF79BFE0746012809D001A836DF02
:10EC000002280FD0002803D000221146FBF7AEFCEB
:10EC10000124AC40344210D02846FFF70FF90028F9
:10EC200002D00AE072B6F3E70F482146027811439A
:10EC300001700298056000200090012F0BD062B691
:10EC40006846007937DF022805D0002803D000226B
:10EC50001146FBF78BFC0098002803D0A6436D1CDF
:10EC6000002EC3D1FEBD00004021002010B5044697
:10EC7000FFF7F7F800280BD02046FFF7DFF8002851
:10EC800008D0054A0120E10089180860002010BD65
:10EC9000072010BD082010BD00F00140F8B5044663
:10ECA000FFF7DFF8002830D02046FFF7C7F800282C
:10ECB0002DD019490126E000401846600020694621
:10ECC0000870FDF733FE0546012809D0684636DF97
:10ECD00002281ED0002803D000221146FBF746FC74
:10ECE0000E48A6400178B1430170012D0BD062B6E9
:10ECF0006846007837DF022805D0002803D00022BC
:10ED00001146FBF733FC0020F8BD0720F8BD0820B2
:10ED1000F8BD72B6E4E7000000F001404021002099
:10ED200004484168002901D08520704701214160D5
:10ED30000020704740210020FEB507460C46007AAF
:10ED40001C21424B4143CE187168002901D0082094
:10ED5000FEBD002C03D1142148433D4944183260C4
:10ED6000E06801250128207804D8294681403948E7
:10ED7000C16001E000F07CFB2178374A0120890066
:10ED8000891808606578FF2D06D03249A840C86010
:10ED9000284600F041FB01E00025ED43A078FF2864
:10EDA00008D0002300931A4619460193029000F000
:10EDB000F5FA02E00020C0430290E078FF2804D07A
:10EDC00000F056FBE07800F027FB397A1C20414325
:10EDD0001E48E2780818427239680520000223783C
:10EDE0000818029A8360C5600261A26842622269C3
:10EDF000E368002A00D00122012B04D0022B04D0AA
:10EE0000032B06D103E0022302E0042300E00623E3
:10EE10001A4342653A7A1C235A430C4B6579D2183F
:10EE200095723268002A04D0032304221B02C918F9
:10EE30004A60012505603068002803D02179786890
:10EE4000FFF7B4FB002030727560FEBDAC310020CE
:10EE5000BC1502000005005000070050F8B59C46A4
:10EE6000037A1C2463432A4C069F1C19237A002B27
:10EE700001D01120F8BD13463B4346D0657A0126E8
:10EE8000FF2D03D03346AB40224DEB600568216176
:10EE9000E272604660612773002060732368002B74
:10EEA00005D02672032604233602AE19B360FF266E
:10EEB00009360020A851002A01D0087800E0A07A85
:10EEC00005231B02EB18D861012A01D9487802E01A
:10EED000012F01D9A07AD8612068002805D003212C
:10EEE00004200902691848600FE00027A85900288B
:10EEF000FCD0AF512146284601F01EFF0028F5D175
:10EF0000607AFF2801D000F0B3FA0020F8BD0000BD
:10EF1000AC31002000050050017A1C2251430E4AFA
:10EF200089180A68002A06D00279D306DB0E01226E
:10EF30009A400A4B1A600A680068002A05D000222D
:10EF40000323D2431B02C3189A60052300221B022D
:10EF5000C01802604A607047AC31002080E100E0D8
:10EF6000152200688900920189184058704702688C
:10EF7000880040301018704700680121C160704758
:10EF800070B5012424048C40032605683602AD19AF
:10EF9000002B01D06C6000E0AC60006889000818AC
:10EFA000052109024018026470BD02688800FF3024
:10EFB0004130101870470268012000048840032186
:10EFC000090251188860704710B58A000024FF328A
:10EFD000036841329C5002680120000488400321EC
:10EFE00009025118486010BD026801211161007AC0
:10EFF000014A800011507047502100200168012211
:10F000000A60007A0221024A800011507047000015
:10F0100050210020F0B5FF25023504688D40FF34F3
:10F02000FF340234059E2768AF4327600468FF342D
:10F03000FF34023425681D4325603346FFF7A0FFE7
:10F04000F0BD0000F8B50446007A0D46254F81005A
:10F0500079581646002901D00820F8BD002D03D1AB
:10F06000142148432049451820492068884236D059
:10F07000297B6068FFF79AFA217A1A4A8900121DE3
:10F0800028695050002E2AD0207A11468000083975
:10F090000E50052022680002121829795368C9070A
:10F0A0005B085B00C90F0B4353602268297A121872
:10F0B000936889079B089B00890F0B439360216825
:10F0C0002A7808180169120709090901120F11436A
:10F0D0000161217A0120890078500020F8BD0720C5
:10F0E000F8BD000050210020D01502000080004033
:10F0F00070B503460079C106C90E01208840124947
:10F100000860187A1149002480000C501846FFF757
:10F110006BFF18680E49FF30FF30023002688A43E7
:10F1200002600122002012040326360211461D68E7
:10F130008140AD19A960401C0428F7D3187A03490F
:10F140008000091D0C5070BD80E100E04C210020C2
:10F150000F0F000001220068052352021B02C01895
:10F160000069C2404A43500970470000F3B50446A5
:10F17000254881B08069002801D00820FEBD002C00
:10F1800000D1224C206800F051F92078012739463F
:10F190001F4E8140B1600021606800F02CF91D4DC8
:10F1A000E06968626169A0690843E86603CCE860C9
:10F1B0006961E068083C01280ED10021A06800F0D8
:10F1C0001AF9E06800F032F9207B39468140B160DD
:10F1D000E168A068A96028610B4E029870602169FF
:10F1E0003160002807D020340C4A21780A4850604A
:10F1F0000220FFF7DBF9042028600020F074B074CF
:10F20000B7617075FEBD0000C8310020E415020032
:10F21000000500500025004080000200002300404F
:10F22000F8B5294DEA7C002A01D01120F8BDE97417
:10F23000E86000202875687D002801D101F0FEF803
:10F240006868224C002805D0812021498000486050
:10F250000020F8BDFF212531204600F0E1F90546E8
:10F26000FF210931204600F0DBF90746FF21453137
:10F27000204600F0D5F90646394631432943E9D006
:10F280002846304306D101F051F80F48C17C007D7B
:10F290008142DFD8FF21453100206050FF21253118
:10F2A00060500949002DC87401D00320F8BD002E1C
:10F2B00001D00F20F8BD497D0120002901D0206038
:10F2C000C6E76060C4E70000C831002000200040AD
:10F2D0000023004010B5044C607D002803D101F0EC
:10F2E000ADF80120607510BDC8310020F8B5204C84
:10F2F0000026A27C002A01D01120F8BDA174A060D4
:10F30000002020821B4DFF271D37E8510120A860F7
:10F3100001F0B2FD6168002911D024E0FF27013718
:10F320002946144800F07CF9002802D1208AB8420E
:10F33000F6D1208AB84203D001F09EFD00E03D46A0
:10F34000A07C218A8842E9D8218AC81FF9380CD0CC
:10F35000084F2946384600F063F90028F9D001200B
:10F36000F8600020A0743046F8BD0F26F9E70000D1
:10F37000C83100200020004030B552000A439900F7
:10F38000039C0A432102049D0A4329040A430249BB
:10F3900080004018026030BD0007005030B55200B8
:10F3A0000A439900039C0A432102049D0A4329044D
:10F3B0000A43024980004018026030BD0007005037
:10F3C00030B552000A439900039C0A432102049D70
:10F3D0000A4329040A43024980004018026030BDF4
:10F3E000000700501CB5002100910B46012201913D
:10F3F000FFF7C2FF1CBD1CB500220B460092114650
:10F400000192FFF7DDFF1CBD024A03218000801836
:10F4100001607047000700501CB5002100910B46A9
:10F42000012201911146FFF7B9FF1CBD1CB5002157
:10F4300000910B46012201911146FFF7C1FF1CBD4F
:10F44000820006481018026803231B049A430260D6
:10F45000026809040A430260704700000007005078
:10F46000012181400148C160704700000005005043
:10F470000121814001488160704700000005005073
:10F48000034940180068012800D0002070470000A0
:10F490000060004010B510A10300F9F7ACFF0A06A8
:10F4A000080A0C0E10121416181910A110E015A15C
:10F4B0000EE01CA10CE023A10AE02AA108E02FA184
:10F4C00006E034A104E03FA102E045A100E04CA128
:10F4D00051A0F9F769FF10BD424C455F5359535F86
:10F4E0004556545F494E56414C4944004E52465F82
:10F4F0004556545F4846434C4B535441525445443F
:10F50000000000004E52465F4556545F504F57452D
:10F51000525F4641494C5552455F5741524E494E04
:10F52000470000004E52465F4556545F464C4153DB
:10F53000485F4F5045524154494F4E5F53554343E6
:10F54000455353004E52465F4556545F464C415317
:10F55000485F4F5045524154494F4E5F4552524FBC
:10F56000520000004E52465F4556545F5241444996
:10F570004F5F424C4F434B45440000004E52465FA4
:10F580004556545F524144494F5F43414E43454CB9
:10F59000454400004E52465F4556545F524144492F
:10F5A0004F5F5349474E414C5F43414C4C424143AE
:10F5B0004B5F494E56414C49445F52455455524E5B
:10F5C000000000004E52465F4556545F5241444988
:10F5D0004F5F53455353494F4E5F49444C450000DC
:10F5E0004E52465F4556545F524144494F5F534522
:10F5F0005353494F4E5F434C4F5345440000000066
:10F600004E52465F4556545F4E554D4245525F4FF0
:10F61000465F45565453000025730D0A0000000054
:10F620004058002800D001207047032212028018A1
:10F630004068084000D00120704700000549084696
:10F6400018300A78437D5A4082744978827D51404F
:10F65000C17470471420002010B5086800280BD131
:10F6600006480F21002289044068FBF72BFB002885
:10F6700002D06420FEF78CFF10BD0000A012020033
:10F6800070B501882C4C0546192937D017DC2B485A
:10F6900010291CD0112911D106212170C91F2182E6
:10F6A000617B042923D0022161730F2100224904C8
:10F6B0000069FBF707FB0020FAF780FD70BD3929D0
:10F6C00001D05529FAD11321208A76DF2EE0006976
:10F6D000FBF734FB0A20FCF7ADFC002802D06420C5
:10F6E000FEF756FF00202070A888208270BD0321FD
:10F6F0000022C9030069FBF7E5FA05E080790028DC
:10F70000F4D12078042801D00320D5E70020FCF7AD
:10F7100091FC002802D06420FEF73AFFFCF7ACFB16
:10F72000002802D06420FEF733FF3CDF0028DDD044
:10F730006420FEF72DFF70BD00200020A012020003
:10F74000F8B5CA88002A1BD1104B8E899C781D8879
:10F750000C3113E00A2353435B181F79BC420CD1D0
:10F760005F88BD4209D10A2462435118897949074B
:10F7700006D559890181002103E0521C9642E9DC3B
:10F7800001210091026869469047F8BD06210020DA
:10F790007047F0B58BB00446022768460773002611
:10F7A00009968784C68408A80A900D46A18A2088F5
:10F7B00009AAA5DF002804D0E16A00291AD08847E9
:10F7C00018E06846008CC007C00F13D06846068258
:10F7D000208803A9A8DF002813D1A97E28461B3062
:10F7E00001220B00F9F707FE09430F1B20222426F4
:10F7F0003E284300FF20FE3069460882208803A986
:10F80000A8DF0BB0F0BD00960AE0062219E06946B9
:10F810000A72019022E0204690470020F1E7009212
:10F820002B8B022BF3D2F0E700971DE003201AE0A8
:10F83000042018E0052016E0298B032905D20322B5
:10F8400008212046FBF76EFFDBE7417802780802CB
:10F8500010436946888003D006200090A26ADAE748
:10F860000720FAE7092000906946A26AD3E703223D
:10F87000E7E7000009680648002906D0012903D0FF
:10F88000022901D10021417070470121FBE70000EE
:10F890000020002010B50868002802D10879FAF786
:10F8A000A3FD10BD10B50868002802D10879FAF749
:10F8B0009BFD10BD074A904201D1074803E0074A6B
:10F8C000904202D10648C1607047064A9042FBD17F
:10F8D0000548F8E700800040008C004000900040A0
:10F8E000009C004000A0004000AC004070B5054600
:10F8F0001C200B4968434418204611300621F8F7B4
:10F90000B2FC20461021F8F7AEFCFF212174002044
:10F91000A176C0432083284601F0DCFB70BD0000C7
:10F92000F02F00200449081820214156042901DB4A
:10F9300001207047002070476431002004490818F6
:10F9400020214156042901D2012070470020704730
:10F950006431002070B50D00044604D10022114628
:10F960001046FAF703FE002C04D10022114610467F
:10F97000FAF7FCFD2878207069886170090AA17087
:10F98000A988E170090A2171E8886071000AA071F4
:10F9900070BD000007490979490701D40820704764
:10F9A000002804D0044949780160002070470E20E7
:10F9B000704700006C2100200432002070B5134B0A
:10F9C0001B795B0701D4082070BD002817D0002ADE
:10F9D00015D00368032B10D20C240D4D5C432E5917
:10F9E000002E0AD046686019048945894068614341
:10F9F000654371182818884203D8072070BD0E206F
:10FA000070BD13600020516070BD00006C210020AB
:10FA1000D032002010B51046012907D0022905D0A8
:10FA2000032903D0042901D1FEF7B8F810BD000066
:10FA3000FEB5044626480E460079400701D408204A
:10FA4000FEBD002C25D02068032836D20C21214D84
:10FA500048432958002930D040194189028940681B
:10FA6000514309186068814227D9FEF75BFA0028E4
:10FA700011D06068019021680C2251434F197968B8
:10FA80000091401A39890D46F8F77AFB002914D104
:10FA900003E00E20FEBD1020FEBD29463046F8F7DB
:10FAA0006FFB002909D1002E07D0788900994543C2
:10FAB000019849198019884201D90720FEBD00200C
:10FAC00002460090334621460320FCF7F1FDFEBDBF
:10FAD0006C210020D032002010B507484469601C1A
:10FAE00006D000F00BF801462046F8F749FB10BDA0
:10FAF00001200007406910BD001000100120000720
:10FB0000006980B27047000070B500241348254694
:10FB1000047044702846FCF7BBFD6D1C0A2DF9D318
:10FB20000F4D2C80FFF7D8FF061FFFF7E7FF464376
:10FB30000A4A0020AE60CC32EC610C2141435450A3
:10FB400089180C81401C4C810328F6D3EC602C6290
:10FB500004206C626860002070BD00000432002048
:10FB60006C210020FFB5284881B000791F46164659
:10FB70000C46400702D4082005B0F0BD002C1DD073
:10FB8000019800281AD02068032815D20C211F4D97
:10FB90004843295800290FD041194A8908894968E2
:10FBA000424351186268914206D9002E04D0B042F7
:10FBB00002D3F119814203D90720DDE70E20DBE7EC
:10FBC0000198FEF7AFF900281BD03846FEF7AAF9D6
:10FBD000002816D06068FEF7A5F9002811D06068EB
:10FBE0003246C1190198F8F725FB009620680C21D0
:10FBF00048432D58002202212046019BA84700209F
:10FC0000BAE71020B8E700006C210020D0320020B5
:10FC1000F8B52C4D044628790E46400701D408203B
:10FC2000F8BD002C20D0002E1ED0206800281BD04C
:10FC3000FFF764FF0146A088814213D3102811D337
:10FC4000E08800280ED0FFF747FF471EFFF756FF5A
:10FC50004743E288A188A8684A431218974201D313
:10FC6000890703D00720F8BD0E20F8BD2988032995
:10FC700026D031600C22144B51437060CA1850607A
:10FC800020685850A0881081E0885081FFF736FF27
:10FC90000646FFF733FFA188E288401E5143401813
:10FCA0003146F8F783FA0446FFF728FF0146A868B3
:10FCB00061430818A8602888401C28800020F8BDEF
:10FCC0000420F8BD6C210020D0320020F8B5044695
:10FCD00021481E46007915460F46400701D40820EA
:10FCE000F8BD002F1CD0002C1AD02168032915D292
:10FCF0000C20414319484258002A0FD00818428965
:10FD0000018940684A4310186268904206D9002D64
:10FD100004D0A94202D3A819884203D90720F8BD0C
:10FD20000E20F8BD3846FEF7FDF8002811D0304609
:10FD3000FEF7F8F800280CD06068FEF7F3F800280A
:10FD400007D02B463A46214601200096FCF7B0FC2E
:10FD5000F8BD1020F8BD00006C210020D03200203A
:10FD600010B511490246C868002811D004280FD0E8
:10FD7000022A16D0032A0BD10A79120711D40A6A73
:10FD8000521C0A62032A08D0022802D000F070FC3C
:10FD900010BD086900F0DAFD10BD0D20FAF732FC45
:10FDA00010BDFDF76FFD10BD6C210020F8B50446B5
:10FDB00021481E46007915460F46400701D4082009
:10FDC000F8BD002F1CD0002C1AD02168032915D2B1
:10FDD0000C20414319484258002A0FD00818428984
:10FDE000018940684A4310186268904206D9002D84
:10FDF00004D0A94202D3A819884203D90720F8BD2C
:10FE00000E20F8BD3846FEF78DF8002811D0304698
:10FE1000FEF788F800280CD06068FEF783F8002809
:10FE200007D02B463A46214604200096FCF740FCBA
:10FE3000F8BD1020F8BD00006C210020D032002059
:10FE400010B50068182251430C18A068FEF7D4FDC5
:10FE5000E068FEF7D1FD10BDF1B582B00298002434
:10FE60000568A0004019806BFF2801D0FEF7FCFD5B
:10FE7000641CE4B2022CF4D3286C411C01D0FEF7C0
:10FE80000DFF002418206043002647190090B000A1
:10FE9000381801908068411C05D0FEF7E5FD002070
:10FEA0000199C0438860761CF6B2022EEFD3009809
:10FEB0002858411C05D0FEF717FD00200099C043CB
:10FEC00068500020641CE4B23875022CDAD3029822
:10FED0004068FFF70DF9FEBD10B50468A06BFEF792
:10FEE0008BFDE06BFEF788FD10BD7047F8B50D4641
:10FEF00013480127002449000E18305D002806D061
:10FF0000305D401E3055305D00280FD00027641C46
:10FF1000E4B2022CF1D3002F07D00948A900C01D7C
:10FF2000405802214068FFF746F8F8BD0448A90090
:10FF3000C01D40580068416B28468847E7E700002D
:10FF4000B5210020FEB50C4601680546009120460B
:10FF50001821484300990190471816462846FFF794
:10FF6000BBFF21462846FFF76BFF01981030002E9B
:10FF700009D00099096BB1420FD88EB22968085890
:10FF8000002804D005E029680858002801D0002185
:10FF900000E001213868FEF791FC0023324621463B
:10FFA0006868FEF7EDFF7E606968024A097AFF2003
:10FFB0005054FEBDB4210020F7B582B00446066857
:10FFC0000398182148438719356C03980090204600
:10FFD000FFF782FF20460399FFF732FF0023606896
:10FFE000049A0099FEF7CCFF29463548FEF7B6FD86
:10FFF000397A012002468A40397B884010432946DD
:020000040002F8
:10000000FEF76AFD79682F48002935D0E9000D1800
:1000100002216068FEF7C9FFB36B01462A46184605
:10002000FEF7CAFC0023012203216068FEF7A8FF47
:1000300060680021007A82002348815003216068B3
:10004000FEF795FF054602216068FEF7AEFF014608
:100050002A46F06BFEF7B0FCB06BFEF7E9FCF06BE4
:10006000FEF7E6FC049878606168174A0320097A75
:10007000121F505405B0F0BDE9000D1860680399D7
:10008000FEF793FFB36B01462A461846FEF794FC31
:1000900000231A4603216068FEF772FF6068039927
:1000A000FEF75EFF6168097A8A00074988500321DC
:1000B0006068FEF75CFF054660680399C5E70000CD
:1000C000FF3F000000F00140B8210020F7B50446D2
:1000D0000568019818214843471920462E6CFFF700
:1000E000FBFE31463448FEF739FD397A01200246DD
:1000F0008A40397B884010433146FEF7EDFC029977
:100100002E48002936D0298E89B20291F1000E18AE
:1001100002216068FEF749FF01463246A86BFEF7F0
:100120004BFC0023012203216068FEF729FF606871
:100130000021007A82002248815003216068FEF786
:1001400016FF064602216068FEF72FFF0146324681
:10015000E86BFEF731FCA86BFEF76AFCE86BFEF774
:1001600067FC029878606168154A0320097A121FBB
:100170005054FEBDF1000E1860680199FEF715FF9E
:1001800001463246A86BFEF717FC00231A460321EE
:100190006068FEF7F5FE60680199FEF7E1FE6168B0
:1001A000097A8A000649885003216068FEF7DFFE5D
:1001B000064660680199C7E7FF3F000004F0014070
:1001C000B8210020F7B582B00446056803981821CD
:1001D0004843471920462E6CFFF77EFE31462B48D8
:1001E000FEF7BCFC298F012002468A40A98F884077
:1001F00010433146FEF770FC60680399FEF7B7FEC6
:10020000009003216068FEF7D0FE0146A86B009ABB
:10021000FEF7D2FB606805210068090240180069FA
:10022000002813D0002104980818796888420FD25A
:100230003868FEF711FB009003216068FEF7B5FEF9
:100240000146E86B009AFEF7B7FB07E00121EAE7F9
:10025000AA8F012031469040FEF780FC0498786018
:10026000002360680321049AFEF78AFE3046FEF7F9
:10027000FDFC6168064A097A04988900505061685B
:100280000398097A121F505405B0F0BDFF3F0000DB
:10029000B821002010B511481149008A884206D0C3
:1002A000132176DF04E06420FEF772F902E074DFC8
:1002B0000028F8D10020FBF7BDFE002802D0642002
:1002C000FEF766F9FBF76CF9002802D06420FEF710
:1002D0005FF9FF20F530FEF75BF910BD002000202C
:1002E000FFFF00007047000070B501240B49600457
:1002F00008600B4940108860094940398860094D01
:100300006C602F20F7F710FFAC60074D00242F2002
:100310002C61F7F709FFEC7070BD000080E100E090
:100320004013014000100140D0210020FF21074868
:10033000093100224250064881690648037DC2689F
:10034000D154017D491C0175704700000020004018
:1003500000250040C831002070B500240546601C0F
:1003600094B00007000F6946103002940872601CB8
:100370000007000F10304872887AF9263040801C40
:1003800088721C2103A8F7F76EFF0A940B940C9453
:1003900020A10AA80D94F7F785FF0AA80490F7F7A3
:1003A0006DFF6946C8820AA8F7F768FF6946888228
:1003B000087B102108436946087302A80694079435
:1003C000099408902878887103208880112000946F
:1003D000087048708878F7213040801C0840EF2171
:1003E0000840012630436946887014210EA8F7F7AB
:1003F0003AFF01A80E9068460F9010A90E801420B5
:100400004C8088802B4668880C330EAA03A9A2DF93
:1004100014B070BD43757069640000001FB5012100
:100420000091694608720448C16801910021C174B5
:1004300006C8684690471FBDC8310020FF22054806
:10044000253200218150FF220932815001210160B3
:10045000704700000020004008B5012908D002299B
:1004600005D10222009004216846FAF7F7FC08BD86
:1004700000904089002803D002480068FAF75EFC2B
:100480000122F0E740130200FFB50746C06A81B0C1
:10049000144600283DD0002538462030009033E037
:1004A0000C20F96A68430E18B088801CFE2802D917
:1004B0000C2005B0F0BD22880299401C8854208889
:1004C0001622401C80B2208002990A542088401CC9
:1004D00080B2208002994118308800F0E1FD218827
:1004E000401880B22080B288002A0AD0B168002962
:1004F0000FD0029BC018F7F79DFE2088B1884018E6
:1005000020806D1C0098EDB2007CA842C8D8002065
:10051000CFE70720CDE710B56420FEF739F810BD0E
:100520007FB5F8F767FB39480390002403A93848E2
:10053000FBF7ACFA002802D06420FEF729F8354812
:10054000009033486946483800F062FC002802D029
:100550006420FEF71DF8304D0094297A684601703A
:10056000012001466846103141700020014668466E
:100570008170274869465438FBF736FB002802D0C3
:100580006420FEF705F82548254E00900196029458
:10059000684604720120014668461031417201200C
:1005A0000146684610318172194869463838FBF7B0
:1005B00025FA002802D06420FDF7EAFFFAF748FD8B
:1005C0002C73184800901248694601960C38FBF7C6
:1005D000ADF9002802D06420FDF7DAFF124801903F
:1005E0000094029401206946088009481C30FBF7FA
:1005F0000FF8002802D06420FDF7CAFF0B48FCF773
:100600009FFBA87BFCF724FB7FBD00008D8D0100C4
:10061000B02C002095F8010000200020A5F8010072
:100620001705020075F801006DCC0100950202006B
:10063000014B07C3704700004C2F00200149087090
:10064000704700008420002010B5084CE08AFAF7BB
:1006500031FD21462C318875A17A884204D0A072E0
:10066000FEF7ECFFF9F774FC10BD0000002000203D
:1006700010B50F490028C86009D0012811D0022800
:1006800012D0032802D1C869FDF73CF910BD002043
:1006900008624862074840780028F7D0FBF7DCFF83
:1006A00010BD00F00BF910BD00F05CF810BD0000AB
:1006B0006C2100200432002010B508461146C046C7
:1006C000C04610BD002803D00249C8600020704712
:1006D0000E207047F421002070B5002901D08C074E
:1006E00001D0072070BD064C0125A160628005493C
:1006F000636010DF0028F5D1257016202EDF70BD55
:10070000F4210020B9060200002803D00249086144
:10071000002070470E207047F421002030B585B0CE
:100720000D46044614220E496846F7F783FD0C482F
:1007300004950C38844211D10D21684601700C21BA
:1007400041700B218170002269462046FEF7F4FAC1
:10075000002803D000221146F9F708FF05B030BD8C
:100760002C130200F8B5164C1422606840084000B3
:1007700060601448017851430E183769FFF7BEF9DD
:1007800001463846F7F7FCFC0546E061FFF7B6F98D
:100790000146F0887F1EC019F7F7F2FC022285425D
:1007A000606801D1104300E09043606061691040CF
:1007B000084303D0002000F0C9F8F8BD0220FAE792
:1007C0006C2100200432002010B50248C069FDF7FA
:1007D00099F810BD6C21002010B5FFF77DF9441E7B
:1007E000FFF78CF94443FFF789F90449CA69521E9F
:1007F00050434A692146FDF78AF810BD6C2100205C
:10080000F8B510481422017851430C182569FFF7F8
:1008100075F90146E088228980184019F7F7B0FC85
:100820000F46FFF759F9461EFFF768F94643E0887F
:100830002289F1198018044A40199269FDF767F876
:10084000F8BD0000043200206C21002070B5FFF7D5
:1008500055F90546FFF740F9441EFFF74FF960438D
:100860002946F7F78DFCFDF74DF870BD70B5FFF721
:1008700045F98608FFF742F90749C9694843044624
:10088000FFF72AF9451EFFF739F96843324621463A
:10089000FDF73DF870BD00006C21002010B5044943
:1008A0000020486203488068FAF748FA10BD00004B
:1008B00044200020401302000020704770B5144807
:1008C0001422017851430C18241DFFF717F9618891
:1008D000104E884211D2FFF711F961880D1AFFF707
:1008E0000DF98208A188E06840182169401949196A
:1008F000FDF70DF8FFF702F907E0A288E06880181D
:100900008A082169FDF703F86088706270BD0000F5
:10091000043200206C21002010B505480079000742
:1009200003D4012000F012F810BD00F003F810BD50
:100930006C21002010B504480822416891434160B1
:10094000006900F003F810BD6C2100200249086125
:1009500002498000085800476C2100202C16020034
:1009600010B50446FEF796FD2046FFF7F9F9022C74
:1009700001D0032C08D10548C179002904D00021F9
:10098000C1710320F9F71AFC10BD000000200020FF
:1009900070B50C00054604D1002211461046F9F747
:1009A000E5FD002D04D1002211461046F9F7DEFDC9
:1009B000207828702088FF2109020840000A68700A
:1009C000206809020840000CA8702068000EE8703A
:1009D00020792871207A68712089000AA871A0689E
:1009E000000CE87170BD000010B5054800790007E3
:1009F00002D4FBF71FFE10BDFFF79CFF10BD0000E7
:100A00006C21002038B5134C1349208A88421FD12D
:100A1000684652DF0098F7F797FD0121C943F7F7C1
:100A20001EFD0E49F7F798FC0D49F7F744FCF7F760
:100A30009DFD2146C0B22C314875617A884207D0AD
:100A40006072FEF7FBFD0021064A0846FAF738F807
:100A500038BD000000200020FFFF000000004040E3
:100A60000000A041519F010070B51D4C607B002823
:100A70000ED01C4D01280FD002281AD000250328C3
:100A800023D0042803D10020FBF7D4FA657370BD8E
:100A90000020FBF7CFFA70BD0020FBF7CBFA022055
:100AA00060730F21002249042869FAF70BF90E4AF6
:100AB00010E01720FBF7BEFA74DF03206073C10358
:100AC00000222869FAF7FEF870BD0020FBF7B2FAA1
:100AD000064A657300210846F9F7F2FF70BD000071
:100AE00000200020A01202002D9F0100379F01006E
:100AF000FEB51F4C00252769E06802906846FCF7A8
:100B00007DFE0190FDF74AFA06460198002822D0A2
:100B100000230098E16817E00E680A46864202D971
:100B2000301A086012E0801BF31800261660D668A1
:100B3000116AB446002E07D0FE183602360A5660F7
:100B400066469660156215460029E5D12846E160A3
:100B5000FDF782FA06E02846FDF77EFA002801D16B
:100B6000002E02D00298FBF7E7FD00202071FEBDA9
:100B7000D0210020012002490005086070470000D4
:100B800000E200E010B50E4BD968002906D00268DB
:100B90000C68A24204D8A21A0A600162D86010BD93
:100BA0000B4604E00B46096A121B002904D00C68AE
:100BB0009442F7D3A41A0C6002600162186210BD5F
:100BC000D0210020F8B51E4DEC68002C36D01D4811
:100BD000002740682969401A0602360A2068B04298
:100BE0001AD8361AC7192246107C246A002811D058
:100BF000002010746B69002B09D0D1699069984767
:100C0000002807D000221146F9F7B0FC02E09169F4
:100C1000D0698847002CE1D16978A878814206D153
:100C2000401CC0B2A870022801D10020A87004495D
:100C30000006800D18310F50FFF79CFFF8BD000033
:100C4000D02100200015014010B50023304A0D21AD
:100C50001846F9F7EFFF002802D06420FDF798FC52
:100C60002C4A01212C48F9F7CFFF002802D064203C
:100C7000FDF78EFC2848294A0021001DF9F7C4FF22
:100C8000002802D06420FDF783FC2348244A002179
:100C90000830F9F7B9FF002802D06420FDF778FC8E
:100CA0001D48204A00210C30F9F7AEFF002802D081
:100CB0006420FDF76DFC18481B4A01211030F9F73C
:100CC000A3FF002802D06420FDF762FC1248174AF7
:100CD00000211430F9F798FF002802D06420FDF7B6
:100CE00057FC0D48124A00211830F9F78DFF0028F3
:100CF00002D06420FDF74CFC07480E4A0021001F7B
:100D0000F9F782FF002802D06420FDF741FC10BDF6
:100D10002823002005B30100A4120200EDA2010067
:100D2000DDA20100690A0200050A0200E5020200D4
:100D30007DC30100ADA3010038B50522120283185E
:100D400098696A461070487B0A7B904203D26A46D3
:100D500012784C692254487B401CC2B24A73CC7A48
:100D6000501C844202D90969085C03E00D7B85426E
:100D700002D9887AD86103E0A24201D3AA4201D203
:100D8000012038BD002038BD70B590B005461C214B
:100D90006846F7F768FA6946087804210843694607
:100DA000087000240194039404940594012608A972
:100DB00006948E70154869460884601C0007000F71
:100DC000103007940877304610304877887FF92133
:100DD0000840F721801C0840EF210840B0436946D5
:100DE000887714210AA8F7F73EFA08A90C7107A81A
:100DF0000A910B9069460E864C868E8609A80E9045
:100E0000A888AB1D0AAAA2DF10B070BD062A000098
:100E100038B50446086800280FD0206001216846D4
:100E2000817007490180221D69460120A0DF00284A
:100E300002D12046FFF7A8FF38BD072038BD0000CB
:100E4000021800001CB50A88102A12D0502A0FD1AF
:100E5000CA88C388891D9A420AD10A8B012A07D100
:100E600000220092897E6A461171026869469047A5
:100E70001CBD8988C1811CBDFF2107481D3100228E
:100E800042500648028A8168895C028A521C0282AA
:100E90000348C1617047000000200040C8310020B5
:100EA0000025004070B592B005461C2102A8F7F756
:100EB000DAF9002409940A940B9421A109A80C944E
:100EC000F7F7F0F909A80390F7F7D8F969464882CF
:100ED00009A8F7F7D3F969460882087A0C21084374
:100EE00069460872059406940794089428788871D6
:100EF0000220888011200094087048708878F921B9
:100F00000840F721801C0840EF21084001263043AB
:100F10006946887014210DA8F7F7A5F901A80D906E
:100F200068460E9069468E87CC87142010A90880E9
:100F300068882B1D0DAA02A9A2DF12B070BD0000A7
:100F4000536F726768756D001FB500216A46009186
:100F50001072044882680192817406C868469047FE
:100F60001FBD0000C8310020F0B58FB00D46064609
:100F70001C216846F7F777F968460178022001439B
:100F80006846017000240194039404940594012799
:100F900008A8069487701649684601840794697802
:100FA0000177A9784177807FF9210840F721801CDB
:100FB0000840EF2108404108490068468177142124
:100FC00009A8F7F750F9142109A8F7F74CF908A870
:100FD000099007A80A9068468785C48507860D95FD
:100FE0003088B31C09AA6946A2DF0FB0F0BD00002B
:100FF000072A000010B50068022801D0012802D19C
:101000006420FDF7C5FA10BD7CB50168224D0129A9
:101010000AD002292CD0002929D129461F48F9F7E6
:10102000B1FA002829D02CE0406801781B4810381C
:10103000F9F7C5FA194C103C002803D001210091A2
:10104000019006E0A068E168081A012804D1002098
:101050000090696868468847A068E168081AA18816
:10106000884204D80C480121801CFEF7D9F87CBDC9
:1010700002210091C06801900AE001210648FEF7B4
:1010800035F906488168C0688842F0D10320009095
:101090006968684688477CBD64210020F4310020DF
:1010A0000870000A487002207047000010B5002048
:1010B000FAF7C0FF02490020086000F003F810BDF5
:1010C0005420002010B50020FFF7B8FAFAF7B8FD59
:1010D00010BD000001218140024842688A434260FD
:1010E000704700000C21002038B51549154A488882
:1010F00090420FD04A78144C521CD2B24A70237BD3
:10110000934208D3091D75DF002803D0A169002987
:1011100000D0884738BD00254D70217C002907D0BC
:101120003B2176DF002803D0A169002900D0884741
:1011300061690029EED068460095884738BD0000F7
:1011400024210020FFFF0000483100201149486899
:10115000C005C00D17D0103807D50207120F083A86
:10116000920892005118C96904E081080A4A89006E
:10117000891809688007C00EC1400806800F012841
:1011800003D0032803D002207047002070470120BD
:101190007047000000ED00E000E400E04278837852
:1011A000521CD2B2934200D100220378934201D163
:1011B000002070470A704168407818225043081890
:1011C0007047FFB583B016460C9D0D9C1F4602224A
:1011D00000950194039800F00CF8002807D13B46D5
:1011E0001022314600950194039800F002F807B0F0
:1011F000F0BDFFB583B0074600200C9C86462688CC
:1012000005463AE07868A90042181188684681804E
:101210005188C1800022694601A865DF002839D1C4
:10122000684601780598814226D17046002801D091
:10123000002200E002222088891842180D998A4273
:1012400027D8714600290AD1401C80B22080069A16
:10125000049911542088401C208001208646218852
:1012600006980A18694601A865DF002812D1694668
:1012700020880978401820806D1C3888A842C1DC7D
:10128000704600280AD02088801B401E80B2FF28AC
:1012900002D90C2007B0F0BD069988550020F9E767
:1012A000082200202C22002050220020742200203E
:1012B00098220020BC220020E022002004230020ED
:1012C0001C2D002014130200020000000200000088
:1012D0000000000011000000FFFFFFFF0000000001
:1012E00000000000010000006E0100001719151633
:1012F000000000000000000000E0D7010100000035
:101300008813000001000000010000000000000040
:1013100000000000009000400900000000000000F4
:101320000030004003000000000000000000000A40
:1013300003CC00000000004000000000000000009E
:10134000A42D0020C82D0020EC2D00200000C1C0DD
:1013500081C1400101C3C003800241C201C6C00671
:10136000800741C70005C1C581C4400401CCC00C41
:10137000800D41CD000FC1CF81CE400E000AC1CA01
:1013800081CB400B01C9C009800841C801D8C018F1
:10139000801941D9001BC1DB81DA401A001EC1DE71
:1013A00081DF401F01DDC01D801C41DC0014C1D461
:1013B00081D5401501D7C017801641D601D2C01281
:1013C000801341D30011C1D181D0401001F0C03051
:1013D000803141F10033C1F381F240320036C1F671
:1013E00081F7403701F5C035803441F4003CC1FC41
:1013F00081FD403D01FFC03F803E41FE01FAC03A01
:10140000803B41FB0039C1F981F840380028C1E830
:1014100081E9402901EBC02B802A41EA01EEC02E70
:10142000802F41EF002DC1ED81EC402C01E4C02460
:10143000802541E50027C1E781E640260022C1E280
:1014400081E3402301E1C021802041E001A0C06090
:10145000806141A10063C1A381A240620066C1A670
:1014600081A7406701A5C065806441A4006CC1AC40
:1014700081AD406D01AFC06F806E41AE01AAC06A00
:10148000806B41AB0069C1A981A840680078C1B8F0
:1014900081B9407901BBC07B807A41BA01BEC07E70
:1014A000807F41BF007DC1BD81BC407C01B4C07460
:1014B000807541B50077C1B781B640760072C1B280
:1014C00081B3407301B1C071807041B00050C190D0
:1014D000819140510193C053805241920196C05670
:1014E000805741970055C19581944054019CC05C40
:1014F000805D419D005FC19F819E405E005AC19A00
:10150000819B405B0199C059805841980188C0482F
:1015100080494189004BC18B818A404A004EC18E6F
:10152000818F404F018DC04D804C418C0044C1845F
:10153000818540450187C047804641860182C0427F
:10154000804341830041C181818040409ECADC24A8
:101550000EE5A9E093F3A3B50000406E782F0020BC
:101560009C2F0020CC2F002005000000050000006B
:10157000030000008DBE010023D1BCEA5F78231573
:10158000DEEF1212000000002BE5010089DA0100F5
:10159000A5D9010045DB010027E5010059DA01006A
:1015A000A1D901003DDB010023E50100A9D901001B
:1015B0009DD9010035DB010024310020020304FF26
:1015C00003FF0000000000400000000000000000D9
:1015D0000000000000000000000000000300000008
:1015E00000000000190000001800000016000000B4
:1015F00015000000000000000000000000000000D6
:1016000000E0D701030000001900000018000000EE
:10161000160000001500000000000000000000009F
:101620000000000000E0D701030000004D080200A8
:101630006D080200C907020001080200D907020074
:1016400019090200C1C901006DC90100E9090200C0
:101650002DDD0100303300200300000000000000F9
:101660000000000003000000000000000100000076
:101670000000000000000000000000000300000067
:1016800000000000A4160200002000200802000054
:101690001E8A0100D4160200082200205019000002
:1016A000209401004205C2040717FFFF41062718D6
:1016B00000196E0216FDA50693A4E24FB1AFCFC686
:1016C000EB0764787627186A9D640203E624F40425
:0416D0006E3DCD019D
:04000005000180C1B5
:00000001FF
