:020000040003F7
:10C00000583C0020ADD60300C7D60300C9D60300B4
:10C010000000000000000000000000000000000020
:10C02000000000000000000000000000D5C0030078
:10C030000000000000000000CDD60300CFD60300B2
:10C04000D1D60300D1D60300D1D60300D1D6030048
:10C05000D1D6030000000000D1D60300D1D60300E2
:10C06000D1D60300D1D60300D1D60300D1D6030028
:10C07000D1D60300D1D60300D1D60300D1D6030018
:10C08000D1D6030069EA0300D1D60300D1D603005C
:10C0900085EA0300D1D60300C1F10300D1D6030025
:10C0A000D1D60300D1D6030000000000000000003C
:10C0B0000000000000000000000000000000000080
:10C0C0000348854603F0F6F80048004795C2030090
:10C0D000583C00200648704502D1EFF3098101E089
:10C0E000EFF30881886902380078024A104700009F
:10C0F000FDFFFFFF6DC10300401E00BF00BF00BF7A
:10C1000000BF00BF00BF00BF00BF00BF00BF00BF37
:10C1100000BFF1D170470000056885F308884068CA
:10C12000FF2464B2EFF30585002D01D1A646004738
:10C130002546064621273FBAF0B4002400250026F4
:10C140000027F0B4F92040B200470000401E00BFB5
:10C1500000BF00BF00BF00BF00BF00BF00BF00BFE7
:10C1600000BF00BF00BFF1D17047000010B50C4602
:10C17000002802D00120086010BD2168002911D0DC
:10C180001E48421A814212D03C2A0DD201223C3074
:10C190003C310B7803701346521C401E491E3C2B49
:10C1A000F7D904E00E200BE03C2203F047F8002210
:10C1B0003C21124802F0BEFE1049891E0880002072
:10C1C000206010BD70B505000BD000223C210B484B
:10C1D00002F0B0FE094CA41E2188884203D00B2037
:10C1E00070BD0E2070BD3C220449284603F026F89D
:10C1F0002088401C2080002070BD0000823F00206D
:10C200000A4610B50146744802F068FA10BD10B530
:10C2100002F0AAF910BD10B5704C86B01ECC039484
:10C220006C460EC4002807D0684618DF002803D0EB
:10C230000022114602F052FA0F20800313DF00287B
:10C2400003D00022114602F049FA654B48226549A5
:10C25000082002F088FF002803D00022114602F0D7
:10C260003DFA00200490059001206946087404A856
:10C2700060DF002803D00022114602F02FFA5A484E
:10C2800002F096FF002803D00022114602F026FAA1
:10C2900006B010BD5548C2690021B12A51D0002412
:10C2A0001820534B024603218500ED182960401CDD
:10C2B0009042F9D901264F4D3606AE604E480F2107
:10C2C00040698903884204D000221146104602F0DA
:10C2D00005FA01200007006901218902884204D083
:10C2E00000221146104602F0F9F9444B444A062157
:10C2F000002002F0CBFB002803D00022114602F000
:10C30000EDF900F04FF900F093F9012700281BD058
:10C31000EE6000F09CF9002803D00022114602F0E4
:10C32000DDF920467840FFF776FF00F047F800F08F
:10C33000B4F9002803D00022114602F0CFF9AE6014
:10C3400008E00124C161ABE720467840FFF763FFB6
:10C3500000F034F87D27FF00002C10D103242403C3
:10C36000A06800F076F8002809D0A06800F071F805
:10C37000002818D000F05CF900280ED013E0EE6021
:10C3800000F022F9002803D00022114602F0A6F99D
:10C39000AE60384602F076F805E0384602F072F8F2
:10C3A000A06800F01DF900F000F8BFF34F8F1649A8
:10C3B0001448C860BFF34F8F00BFFDE7094A10B5AE
:10C3C00048321421082002F097F9002803D00022F7
:10C3D000114602F083F910BDEFBEADDE10F303008D
:10C3E000FFF10300E82E00200FC20300000500400B
:10C3F0000007005000050050001000101FEF030060
:10C40000D82C00200400FA0500ED00E010B5B84873
:10C410000378012B03D1012901D102210170100001
:10C4200003D00022114602F059F910BD10B5B04CEE
:10C4300048DF002803D00022114602F04FF902F035
:10C44000E7F92078022803D0032801D00428EFD18F
:10C4500010BD38B50068401C19D00024684602F0B1
:10C4600033F900980178012910D1418800290AD0B8
:10C470008168032000038068002202F05BFD0099C0
:10C480004988814201D1012400E00024204638BDC2
:10C4900010B5044696481C21001D02F0F2F8002851
:10C4A00003D00022114602F019F9914800231C2202
:10C4B0002146001D02F0CCF8002803D000221146CE
:10C4C00002F00CF910BD0FB4F8B5684602F0FCF8A4
:10C4D0006846027E418B0123854CFF258548002A52
:10C4E00012D0012A16D0032A2AD00021022A36D0DF
:10C4F000052A46D0042A4ED0062A01D104202070F5
:10C50000F8BC08BC04B018474180099981600370E9
:10C51000057110E04180089A07998918099A8918CD
:10C520008160A521017005710799C1600899426178
:10C5300001610A99816123706E48FFF7A9FFDFE767
:10C5400000990A7802704A88428089688160AA212D
:10C5500001710799C1600899016109990BE0009A7E
:10C560001678A52E09D0067056884680926882609B
:10C570000571C16001614161DDE741808160057045
:10C58000F6E700F0E1FC002803D00022114602F09B
:10C59000A5F80320B3E7418081600570009909790F
:10C5A0000171C9E70EB5544A6B4607CA07C302F0CA
:10C5B00021F8002807D14E49FF208002091D48605C
:10C5C000684602F032F80EBD10B500F0A6F900285A
:10C5D00005D100F09EFE0446FFF728FF204610BD5F
:10C5E00070B511DF002803D00022114602F076F862
:10C5F000424900200A68414B012180330C468440A7
:10C60000144204D0C506ED0E0C46AC401C60401C24
:10C610002028F3D303242403A06813DF002803D0C9
:10C620000022114602F05AF8A06802F053F870BDDB
:10C6300008B5684602F048F800980178A52904D0AA
:10C640000079AA2801D0002008BD012008BD10B53E
:10C6500000F05EFB002803D100F03AFB00281BD05D
:10C66000642001F00FFF00F0D9FA002803D0002267
:10C67000114602F033F800F04BFB002803D00022F3
:10C68000114602F02BF800F003FB041E03D0002239
:10C69000114602F023F8204610BD00B5164987B0B8
:10C6A00014220C3101A802F0C9FD0598009001A8E0
:10C6B0000FC8FFF708FFFFF7B9FE002007B000BD65
:10C6C00038B50446684601F0FFFF009801782170F4
:10C6D000418861808168A16001792171C168E16050
:10C6E00001692161416961618069A06138BD000013
:10C6F000002C00208030002020F3030000E100E047
:10C7000070B5FB4C1E4660781546012902D00329FE
:10C7100016D108E0052813D16369002B10D03246EA
:10C72000294604200BE002280AD1F24840688047DD
:10C73000032060706369002B02D032462946984777
:10C74000280003D00022114601F0C8FF70BD00B5DB
:10C75000E74987B0012008700520694608710598EF
:10C76000009001A80FC8FFF7AEFE07B000BD10B5DE
:10C77000DF480078002801D0082010BDDE4C20687A
:10C7800002F036FA002803D00022114601F0A6FF7D
:10C790000F2100228904206802F0F1F9041E03D061
:10C7A0000022114601F09AFF204610BDD04910B575
:10C7B000CF482031016102214170C168203001F071
:10C7C00060FF002803D00022114601F087FF10BD52
:10C7D000C74910B5C64818310161022141700320D4
:10C7E000000380680F218903081A4108C0481830E7
:10C7F00001F047FF002803D00022114601F06EFF30
:10C8000010BD704700B5BC4987B01422091D01A8AE
:10C8100002F014FD0598009001A80FC8FFF753FE21
:10C82000A3E7B449002090394A68032109038968C5
:10C830008A4208D9511A880A80028905890D02D0D6
:10C84000012189024018704700B587B00121684670
:10C850000171A74881886846C18003200003806871
:10C860000590A44890384168029181680391C0689E
:10C870000490059800900A46049B02990198FFF7DE
:10C8800022FE002071E730B59A4C9948903C87B061
:10C890002030E16801F0F5FE002803D000221146A7
:10C8A00001F01CFF9248E26818304168002308300C
:10C8B00001F0CEFE050012D1142101A802F0D7FC30
:10C8C0000021684601718A4881886846C180E06815
:10C8D00004900598009001A80FC8FFF7F4FD2846C2
:10C8E00007B030BD00B587B00321684601718048AC
:10C8F00081886846C1807F4890384168029181688C
:10C900000391C0680490059800900A46049B029920
:10C910000198FFF7D8FD002027E7FEB5764E6B465D
:10C920003046183007C807C3714C0025A570214652
:10C93000A5802031684601F078FE002801D065709E
:10C94000FEBD03206A490003806820314860203919
:10C950000A46126A8A610F218903091A4908401898
:10C960006349664A183148600021634802F0CEF8F6
:10C97000002803D00022114601F0B0FE0F21002252
:10C980008904306802F0FBF8002803D00022114629
:10C9900001F0A4FE0120A56060700020FEBD544996
:10C9A0004861704770B5426852481468536891688E
:10C9B0009038D26804604360C260816000784407A8
:10C9C00001D5840705D19C0703D18C0701D19407B9
:10C9D00001D0062070BD5B189A18454D0F239B02AD
:10C9E000EA60994213D84649464B424CC60709D0E3
:10C9F0008868181A90420AD3434820604348606010
:10CA000043480FE08968591A4908914201D20C2025
:10CA100070BD4049216040496160800701D53F48B1
:10CA200000E03F48A0606878012802D00826304620
:10CA300070BDFFF79CFE0600FAD12168E8688847C0
:10CA4000F5E770B5050004D0287A800703D01020E0
:10CA500070BD0E2070BD264C6078032803D00428DA
:10CA600001D0052801D0082070BD6868E168860003
:10CA7000A0688019884204D90020C043A0600C201F
:10CA800070BDFFF774FE0028FAD1A9683246A3688A
:10CA9000206901F0DDFD0028F2D1A1688919A160AB
:10CAA000E2689142ECD0092070BD10B5104C08200E
:10CAB000A168002900D010BD61780429FBD10D4880
:10CAC000A178803800F0A0FD002802D00021A170DC
:10CAD00010BD0521617010BDF8B5054C07466078A2
:10CAE00003281FD004281FD008252846F8BD0000C1
:10CAF0000C2C00204C31002040F303004FC70300F2
:10CB00000030000000C00300ADC7030005C80300EB
:10CB100049C80300D1C7030003C80300E5C80300E8
:10CB200087C8030004206070A068002801D0082096
:10CB3000DCE7FFF71CFE0500D8D178688600A078F6
:10CB40008119802901D90920D0E7924AB9681018C3
:10CB5000324602F073FBA0788019A070C5E710B5CB
:10CB60008D4C6078052813D1E168A06888420FD108
:10CB700006206070FFF7FBFD002808D12069E168FE
:10CB8000406800F07CFD002801D10721617010BDD4
:10CB9000082010BD10B580484078072801D0082033
:10CBA00010BD7E48006802F023F8002803D0002260
:10CBB000114601F093FD774880308068804710BDB2
:10CBC00000B587B00620694608710598009001A855
:10CBD0000FC8FFF778FCC8E5F8B51C4617460D46A8
:10CBE000064600F0C1F8002817D001200003854256
:10CBF00007D92346291B301B1A46FFF7EDFF0028F3
:10CC00000BD13A462946304600F0B9F8002804D145
:10CC10003A462946304600F0A7F867E7F0B589B0F4
:10CC20006846FFF74DFD039800282AD0012109032B
:10CC3000069A4018904226D9501A45081046039A81
:10CC40000C46871802466800161800190790032042
:10CC500000038068039988420DD2611908460422B6
:10CC600000F08DF800280CD121460422084600F07F
:10CC700086F8002805D1BA1B2B4630460799FFF7E6
:10CC8000ABFF09B0F0BD039A069800F078F8F8E71A
:10CC900000B58BB004A8FFF713FD089800280DD04D
:10CCA000079800280CD007990A9840180190002195
:10CCB0000898009180080290684618DF0BB000BD0C
:10CCC0000320000380680F218903091A4908ECE753
:10CCD00000B58BB004A8FFF7F3FC08980028EDD04E
:10CCE0000F210798890300280CD0079A0A98019110
:10CCF00080180290032208980092800803906846EA
:10CD000018DFDBE70320000380680A1A5208EEE709
:10CD100030B58FB06846FFF7D3FC0398002814D0D5
:10CD200001210903069A4018904214D9501A430869
:10CD30001046039A5C00821800196118032424032A
:10CD4000A468039DAC4202D20E200FB030BD121A6F
:10CD5000FFF742FFF9E703200BAB07C303988008F6
:10CD60000E900BA818DFF0E71FB503230190900881
:10CD7000039000930291684618DF04B010BD1FB500
:10CD8000012301909008039000930291684618DFF8
:10CD9000F3E70000CC3000200C2C002040F303000F
:10CDA00008280CD004DC002807D006280FD108E0A2
:10CDB0000B280AD00C280AD105E001207047022078
:10CDC00070470320704704207047042901D00620D3
:10CDD00070470520704770B515460A4603283AD0BB
:10CDE00004280ED1F84C00290CD0E088F74988427D
:10CDF00007D0132176DF002803D00022114601F06E
:10CE00006DFC70BD284602F000F9002803D0002216
:10CE1000114601F063FCE069A8420AD10122032116
:10CE2000EB4800F0B3FC002803D00022114601F0CB
:10CE300055FC20691421054602F0EAF96D1C2561B4
:10CE4000002904D00120E3490006C86070BD182005
:10CE500000F000FB70BD01211046FFF7A1FF024664
:10CE60000121DB4800F092FCC5E7F0B50546087AE1
:10CE70000E4685B081070CD003221146284600F0EB
:10CE800085FC002803D00022114601F027FC05B0E4
:10CE9000F0BDCD490090183102F090F8010011D199
:10CEA000C94C7168009AA06902F0C8F9009802F0B4
:10CEB000DFF8010006D120466946183002F0E4F898
:10CEC000010003D0284600F0F7FAE0E704200190C3
:10CED000009880080290A069039001A8FFF7B1FDB7
:10CEE00007000BD0092F10D0A06902F08EF80100C6
:10CEF00002D0284600F0E0FA3946E3E7307A61696B
:10CF000040186061A069E061C1E7307A6169411849
:10CF1000616160780028BAD06089401E0004000C6E
:10CF20006081B4D1284600F088FD002803D000229B
:10CF3000114601F0D3FB20896081A8E710B50022DB
:10CF4000114601F0CBFB10BD10B59F4C01202070A5
:10CF5000E0889E49884208D0132176DF002813D04C
:10CF60000022114601F0BAFB0EE0A07800280BD099
:10CF700074DF002803D00022114601F0AFFB182017
:10CF800000F068FA0020A07001F0CBF9002803D06F
:10CF90000022114601F0A2FB002010BD70B50D78F3
:10CFA00004460120884A2B0002F096F90A2B3043F0
:10CFB000061320575C466012FFF7D1FD0421FFF7EE
:10CFC000EFFE024604212EE00022114601F086FB0E
:10CFD00070BDFFF7B9FF002803D00022114601F011
:10CFE0007DFBFFF7D7FD002808D170BDFFF7ACFF30
:10CFF000002803D00022114601F070FBFFF7E0FD8E
:10D0000070BD107148680078507170BD02201071B9
:10D01000486800780128F8D1FFF747FD0221FFF7A3
:10D02000BFFE02460221204600F0B0FB0028CBD113
:10D0300070BD0320107170BD12792046012A06D000
:10D04000022A07D0032AF6D1FFF70FFF70BD00F0C8
:10D0500046FA70BD00F080FA70BD5070888810816B
:10D06000508170BD00205070108170BD2046516904
:10D0700000F0ACFCDAE710B50446554890B0817971
:10D080006846817054490180382101A802F0EFF808
:10D0900002216846017100218171C47101218181E1
:10D0A0000490002101A800F04FFF002803D00022C7
:10D0B000114601F013FB10B010BDF0B5424C8BB01F
:10D0C000A07800283ED142481821183802F0CFF845
:10D0D00020463F4CC078183C0025012600283BD054
:10D0E0002746483700950195029510226946F81D9C
:10D0F000039502F0C7F8002826D0F81D089009977C
:10D100006846067509A804906846067708A8069040
:10D110000420FFF7B0FF25700220207204A8E06011
:10D12000282020822A486582183873DF002803D01F
:10D130000022114601F0D2FA012026490006C860FB
:10D14000214886700BB0F0BD0520FFF794FF2670D4
:10D15000676025722582E5E70620FFF78CFF2570C2
:10D1600065602572DCE7F0B50546174C008800279E
:10D170000122E688A7B0172810D02FDC112850D044
:10D180000EDC02287ED0102808D112490005C860A4
:10D19000182000F05FF9A888E080A77027B0F0BDE4
:10D1A0000B4C303427461837132856D01428F5D1A5
:10D1B000E889628D0021904200D139460023A88879
:10D1C000E21D82DF26E00000342C0020FFFF00007B
:10D1D000703100200005005030150000512867D044
:10D1E0000EDC18287FD01928D8D1A8790028D5D1ED
:10D1F000A770E068401EE0604AD0FFF75EFFCDE711
:10D20000522870D05528C9D1A8790028C6D1132139
:10D21000304676DF0028C1D00022114601F05EFAC8
:10D22000BCE78020694688803220E060182000F04A
:10D2300011F9012301AA06A9E088AADF002803D07A
:10D240000022114601F04AFA2078002801D1FFF7A8
:10D2500034FF0020C043E080A0E70722DB4910A88C
:10D2600001F0ECFF1022E11D0CA801F0E7FF1C22E9
:10D27000394612A801F0E2FF0CA80A9012A806ABEA
:10D28000D34A00E010E00990852130467FDFC1E7F6
:10D290001422D04906A801F0D1FF0A9806AC0090EC
:10D2A0000FCCFFF710F979E70021304667DFB1E7CF
:10D2B000A9790029A3D0A87A042803D0062801D090
:10D2C00005289CD102290AD068460272FF208330CB
:10D2D0006946888102A93046A8DF9BE703E0022067
:10D2E00069460872F2E700F0BAF893E710B5044611
:10D2F00001F04BF8B5482146303800F025FB2046B8
:10D30000FFF731FF10BD10B50022114601F0E6F91C
:10D3100010BD30B5AE4D87B00024203D2C702C716F
:10D32000182000F091F8182000F08EF8182000F076
:10D3300091F8182000F08EF8A74801F031FF00287E
:10D340007CD1A648FFF72BFB01F012FE002875D117
:10D350009E48FEF737FF002873D0684671DF00282B
:10D3600003D00022114601F0B9F969464878401C03
:10D370004870002070DF002803D00022114601F021
:10D38000ADF9112069460872072295A102A87CDF39
:10D39000002803D00022114601F0A0F900940C21CE
:10D3A00068460194018018214180FF2184809131D9
:10D3B000C1807ADF002803D00022114601F08EF9E7
:10D3C00008206946009408808748019087480290A9
:10D3D0007E48303800F078FA002803D00022114649
:10D3E00001F07CF91C21684601F041FF8048019062
:10D3F0000120800302900094032168460173C481D8
:10D4000004747C4806900594684600F068FF002884
:10D4100003D00022114601F061F96D49E12208783C
:10D42000400840001040DF220C30104008700720F8
:10D43000487010208870FFF740FE002007B030BD14
:10D44000FFE70120E8709CE76B4A03218000801809
:10D45000016070470121814068488160704770B564
:10D460005B4C674D203CE088A84201D1082070BD8C
:10D47000E17800291BD05549012308223431A9DF66
:10D480000028F4D1022300221146E088A9DF0028F9
:10D49000EDD12A460C21E088A7DF5A49884204D002
:10D4A000082802D0891C8842E1D1002070BD0023E9
:10D4B0001A461946A9DF70BD10B50A460446032175
:10D4C0001046FFF76DFC02460321204600F05EF98E
:10D4D000002803D00022114601F000F910BD30B53C
:10D4E000054687B0002000900190029003903848D4
:10D4F0006A46203840791070364A0C3A10689268B3
:10D500000490684606920590087A0C2806D00322FB
:10D510001BE00022114601F0E1F88FE74C6820463D
:10D5200000F049F80190201D00F045F802902046D7
:10D53000083000F040F8039004A8FFF733FA002801
:10D54000EBD00121FFF72CFC02460121284600F018
:10D550001DF90028DDD171E7FEB50446087A82077F
:10D560000ED08207920F04239B1A0022154604E076
:10D570004E683554401CC0B2521C9A42F8D308720F
:10D580000120009048680290087A8008019068465F
:10D59000FFF7A2FA00280DD00221FFF701FC024696
:10D5A0000221204600F0F2F8002803D000221146A4
:10D5B00001F094F8FEBD10B5044601F070FE0002C3
:10D5C000E178000A0906084310BD0000A0310020E0
:10D5D000542C002070F30300EDD20300D7CD0300DC
:10D5E00044667554617267009DCF030007D3030042
:10D5F000CD0C00003DCF0300000700500005005097
:10D60000FFFF00000230000070B500250C290ED38A
:10D6100004464318008941000919581A0A38C2B251
:10D620001E48022A027002D30A318B4201D209201D
:10D6300070BD1B4801F002FE1A481B4902898A424C
:10D6400002D02388934218D14089884202D0618851
:10D65000814212D1144A0323521E20891B03A8427F
:10D660000BD9690009194989914204D09E896D1C22
:10D67000B6B2B142F3D1002070BD0B2070BD10B521
:10D68000002201F057FC064A517812780902114332
:10D69000884201D00B2010BD002010BD592C002065
:10D6A000DC310020A0100010FFFF0000032109481A
:10D6B00002680A430260084802680A430260074899
:10D6C000804707480047FEE7FEE7FEE7FEE7FEE784
:10D6D000FEE700002405004054050040EDD603009D
:10D6E000C1C00300234922480860704710B500F00C
:10D6F0001DF8002805D021491F484860C81320495B
:10D7000088612048018CC9B201290ED1818C09079A
:10D710000BD1018D0906090F042906D1808D000661
:10D72000000F02D118490120886010BD1548018CF6
:10D73000C9B2012917D1818C090714D1018D0906BD
:10D740000A0F03D1828D1206120F0ED0090F012984
:10D7500003D1828D1206120F07D0032903D1808DC9
:10D760000006000F01D00020704701207047000024
:10D770000024F4005C2C0020DFFF07C000050040FF
:10D78000006C0040C00F00F00006004030B585B0CE
:10D79000002822D00388FE4CA34220D0FD4B1B78EA
:10D7A000002B1CD0FB4B10255B1C1D7059700024F6
:10D7B00001259A70032269460A820094019402941A
:10D7C0000394028A0A808D708C8004A902910393CD
:10D7D00000886946A6DF05B030BD0E20FBE70820B3
:10D7E000F9E7F0B58BB004460227684607730026B8
:10D7F00009968784C68408A80A900D46A18A2088C5
:10D8000009AAA5DF002804D0E16A00291AD08847B8
:10D8100018E06846008CC007C00F13D06846068227
:10D82000208803A9A8DF002813D1A97E28461B3031
:10D8300001220B0001F050FD09460F1C2227292C64
:10D84000442E4600FF20FE3069460882208803A946
:10D85000A8DF0BB0F0BD6B461E700BE006221EE089
:10D8600069460A72019027E0204690470020F0E7C1
:10D870006B461A702B8B022BF2D2EFE768460770CB
:10D880006946A26AF0E7032000E00420694612E03E
:10D890000520FBE7298B032905D203220821204616
:10D8A000FFF774FFD5E74178027808021043694614
:10D8B000888003D006200870A26AD5E70720FAE71F
:10D8C0000920E3E70322EAE730B585B00D460400FE
:10D8D00038D0002D36D06868002833D00020C043EF
:10D8E000AD4B20800FCB049301AB07C3AB48694617
:10D8F000088001A8811E63DF002822D1221D69460D
:10D900000120A0DF00281CD168468078A071204645
:10D9100000F0CEF8002814D1204600F059F9002874
:10D920000FD12946204600F004F9002809D1686883
:10D93000A062A868002800D0E06296490120087023
:10D94000002048E70E2046E73EB5002828D00029F1
:10D9500026D0826A002A23D00A88102A21D0112AD0
:10D9600030D0502A1FD0512A1AD10A460446891DA8
:10D970000878022814D14888238A984210D1907AD6
:10D9800004280DD006280BD0052809D02046891C74
:10D99000FFF727FF002803D0E16A002900D088475D
:10D9A0003EBD898810E0CB8802899342F8D10822D5
:10D9B0006B461A708A7F1A7220310191826A694619
:10D9C00090473EBD0021C94301803EBDF0B585B002
:10D9D0000A4605002DD028886D4988422BD06D4815
:10D9E0000078002827D06B4C1020641C2070072082
:10D9F00060700127A7700321684601820026E11CA0
:10DA0000104600F04CF801466846008A091868463E
:10DA100001820096019602960396298A01808770FA
:10DA2000868004A80394029028886946A6DF05B082
:10DA3000F0BD0E20FBE70820F9E7F0B585B00A46F7
:10DA4000050028D028885249884226D051480078BD
:10DA5000002822D04F4C1120641C207001276846FA
:10DA600007820026611C104600F019F8014668463E
:10DA7000008A09186846018200960196029603966C
:10DA8000298A01808770868004A8039402902888E0
:10DA90006946A6DFCBE70E20C9E70820C7E7087074
:10DAA000020A4A70020C8A70000EC8700420704787
:10DAB00030B58FB005461C21684601F0D8FB694699
:10DAC00008780421084369460870002401940394EF
:10DAD000049405940694A87908A988702F4869468B
:10DAE000801C0884601C00070794000F0C7710301E
:10DAF00048778A7FF9200240F720921C0240EF20ED
:10DB00000240012002438A77142109A801F0AFFBEB
:10DB100008A8099007A80A9069468C851420CC852E
:10DB200008860D942B46A888083309AAA2DF0FB0F7
:10DB300030BDF0B58FB00F4605461C21684601F098
:10DB400096FB684601780226314301700024019457
:10DB50000394049405940694A97908A881700F4948
:10DB60006846091D0184601C0107090F68461031D1
:10DB7000079401770020014668464177817FF920AC
:10DB80000140F720891C0140EF200140012007E0FF
:10DB9000FFFF0000602C002084F30300301500001C
:10DBA000014368468177142109A801F060FB08A8A9
:10DBB000099007A80A9068468685C48506860D9751
:10DBC0002B46A888203309AA6946A2DF0FB0F0BD12
:10DBD00030B58FB005461C21684601F048FB694608
:10DBE0000878082108431022104369460870002471
:10DBF00001940394049405940694A87908A9887064
:10DC0000144869460884601C00070794000F0C77CD
:10DC100010304877887FF9210840F721801C0840A0
:10DC200010430121084369468877142109A801F0AF
:10DC30001EFB08A8099007A80A9069468C85172042
:10DC4000CC8508860D942B46A888103309AAA2DF3C
:10DC50006DE7000031150000FFB583B007460020D6
:10DC60000C9C8646268805463AE07868A90042184A
:10DC70001188684681805188C1800022694601A8C8
:10DC800065DF002839D1684601780598814226D1A0
:10DC90007046002801D0002200E002222088891866
:10DCA00042180D998A4227D8714600290AD1401C92
:10DCB00080B22080069A049911542088401C20804C
:10DCC00001208646218806980A18694601A865DF62
:10DCD000002812D1694620880978401820806D1CE0
:10DCE0003888A842C1DC704600280AD02088801BF2
:10DCF000401E80B2FF2802D90C2007B0F0BD069963
:10DD000088550020F9E7FFB583B016460C9D0D9CA1
:10DD10001F460222009501940398FFF79DFF0028FB
:10DD2000EBD13B4610223146009501940398FFF752
:10DD300093FFE2E7F7B584B0002516880746158003
:10DD4000406B1446002813D003780598032E51D356
:10DD50000221017021881122491C89B2218042547C
:10DD60002188491C89B2218043542088401C20808E
:10DD7000386B00281DD005462088059902461232CE
:10DD8000B24237D811220A5420881022401C80B297
:10DD900020800A542088401C20800F202A5C238881
:10DDA000401ECA54228840B2521C22800028F5DA54
:10DDB0000025384620300290807B002806D033466C
:10DDC0002246059900F0F9F8050096D10298407BAB
:10DDD000002806D032462146059800F018F90500C3
:10DDE0008BD1B878002822D0059886462088001D5F
:10DDF000B04201D90C2080E7684679DF0028FAD1CB
:10DE0000218803207246505420881921401C80B27A
:10DE10002080115420887146401C80B22080411817
:10DE20006846008800F0C4F8218840182080F878FF
:10DE3000002817D0218803230A46FB56C91C0598E1
:10DE4000B142D7D80221815421880122491C89B2CC
:10DE5000218042542188491C89B221804354208862
:10DE6000401C20807868002817D021880023C356E2
:10DE70000A46C91C0598B142BCD8022181542188A8
:10DE80000A22491C89B2218042542188491C89B246
:10DE9000218043542088401C2080388900280AD0E3
:10DEA000009438460196062202210830059BFFF7B0
:10DEB0002AFF05009FD1388A00280AD000943846EE
:10DEC0000196072203211030059BFFF71CFF050078
:10DED00091D1388B00280AD000943846019615223B
:10DEE00014211830059BFFF70EFF050087D1386A13
:10DEF000002806D033462246059900F006F90500B1
:10DF0000D8D1786A002806D033462246059900F019
:10DF10003DF90500CED10298007B002807D033469A
:10DF200022463846059900F065F90500C2D13878D7
:10DF3000002807D0334622463846059900F096F867
:10DF40000500B7D12846D8E6F0B50C4693B01F219E
:10DF50006A461180072600279180002809D0C178E1
:10DF600049070DD502A9FFF7E5FE002809D102AD4A
:10DF700001E000251780002C0ED0E078002802D0A8
:10DF8000304613B0F0BD01AA0AA92046FFF7D2FE21
:10DF90000028F6D10AAA02E0684600228780684677
:10DFA0008088C3B268460088C1B2284672DFE8E7BD
:10DFB0000870000A48700220704730B51588EC1CC4
:10DFC0009C4201D90C2030BD02244C5513881C25DD
:10DFD0005B1C9BB21380CD5413885B1C9BB21380D7
:10DFE000012807D0022807D0032807D0042807D02B
:10DFF000072030BD002004E0012002E0CC5401E005
:10E000000320C8541088401C1080002030BD7CB50F
:10E01000054608880C460930904201D90C207CBD89
:10E02000684671DF0028FAD12188082068542088CA
:10E030001B21401C80B220802954208800A9401C4C
:10E0400080B2208040190622013101F0F7F82088C3
:10E050006946801D80B220800978002900D0012106
:10E0600029542088401C208000207CBDF8B50F4634
:10E07000017814460546012902D16878002806D0A7
:10E080002088821C9A422DD8012902D006E0072060
:10E09000F8BD69784118891C994223D8181A801E46
:10E0A00086B2684606802188B81C081869467DDF5C
:10E0B0000028EDD12878022805D169460988B142A7
:10E0C00001D809210AE00821012805D16878B04269
:10E0D00002D86A46108001E06846068068460088DB
:10E0E000FE2801D90C20F8BD2288401CB854208895
:10E0F000401C80B22080395420886946401C208012
:10E100000988401820800020F8BDF8B50646108820
:10E1100014468446801D0D46984201D90C20F8BD56
:10E1200032880720062AFAD31927FF01554BBA4235
:10E1300001D99A42F3D171880629F0D3B94201D9A5
:10E140009942ECD19A4203D0994201D08A42E6D852
:10E1500005216046295420881221401C80B220806D
:10E1600029542088401C80B2208041193088FFF754
:10E170001FFF2188401880B2208041197088FFF766
:10E1800017FF2188401820800020F8BD70B5144684
:10E1900082880E4605462088111D4118921C99421E
:10E1A00001D8FE2A01D90C2070BD521C325420889F
:10E1B000FF21401C80B2208031542088401C80B256
:10E1C000208081192888FFF7F3FE2188401880B24B
:10E1D0002080AA88002A09D0A968002908D08019BF
:10E1E00001F02CF82088A98840182080002070BDFC
:10E1F000072070BDFFB50746806A81B0144600282D
:10E200003DD0002538462030009033E00C20B96A1C
:10E2100068430E18B088801CFE2802D90C2005B077
:10E22000F0BD22880299401C885420881622401C88
:10E2300080B2208002990A542088401C80B220803D
:10E24000029941183088FFF7B3FE2188401880B248
:10E250002080B288002A0AD0B16800290FD0029B22
:10E26000C01800F0EBFF2088B188401820806D1C9A
:10E270000098EDB2007BA842C8D80020CFE7072065
:10E28000CDE70000FFFF000038B57949794A48889A
:10E2900090420FD04A78784C521CD2B24A70237BFD
:10E2A000934208D3091D75DF002803D0A169002916
:10E2B00000D0884738BD00254D70217C002907D04B
:10E2C0003B2176DF002803D0A169002900D08847D0
:10E2D00061690029EED068460570884738BD70B581
:10E2E000054601461C22644800F0A8FF604C002649
:10E2F00026702968002906D00822201D00F09EFF04
:10E30000201D7ADF02E05A48001D7BDF002807D17C
:10E31000401E60806670594A0021594800F0F6FBA3
:10E3200070BD10B55648006800F062FC10BDF8B52D
:10E330004F480C3000F08FF800264D4D4E4C002811
:10E3400007D0616900291CD001206A461070684618
:10E3500016E02878002805D06169002911D06846A8
:10E3600006700DE0687800280DD0A16844480022AE
:10E37000006800F004FC002803D0A169002900D047
:10E3800088472E70F8BD6168F0E7F8B53A4C02880E
:10E390000027374DE689102A17D03949112A21D094
:10E3A000122A2DD0502A0FD1C288801DB2420BD123
:10E3B000028B022A08D1C27E837E10021843C00756
:10E3C000C00F13D0FFF7B3FFF8BD81886980014605
:10E3D0002748082216310C3000F030FF6F70002EF5
:10E3E000F0D0F8BD0020C04368806F70086800F06E
:10E3F000FFFB0028F5D0A1690029F2D08847F8BDBD
:10E40000811D1B4808220C3000F018FFDAE7F8B530
:10E41000014617480822001D00F010FF1448001D97
:10E420007ADF04000DD112480C3000F014F80125F9
:10E43000002808D010484169002902D068460570BC
:10E4400088472046F8BD0A4E3570311D708875DF4B
:10E4500004467570F5E741880548001D0288914221
:10E4600004D34088814201D80120704700207047C2
:10E47000682C0020FFFF00000832002089E2030022
:10E4800094F3030031B5054C04E0401E0090204693
:10E49000FDF732FE00980028F7D138BDE7030000F1
:10E4A00018225043864A0021801801718160416121
:10E4B000022281610261C160704770B5804C1822F0
:10E4C00021780F2051430A197E4916795369121D8C
:10E4D0004D68012E0FD0032E0CD1012000070069DA
:10E4E00081B2184600F094FE401928DF002801D1BF
:10E4F0000121A17070BDA802556851692D1A091833
:10E5000092681818101801229202954202D2AA08A5
:10E5100029DFEBE7FF22013229DFE7E7F8B5684C96
:10E52000069E65780A2D1DD027787D19EDB20A2D3B
:10E5300001D30A3DEDB218277D432D192871AA6138
:10E5400003C9EE60AB6069612861A17800200029F1
:10E5500004D1FFF7B2FF112800D100206178491CD7
:10E560006170F8BD0420F8BDF8B5554C0022A178C3
:10E5700001293ED10023A3700646214608781827BA
:10E58000054678434118022E03D0032E31D10D20C9
:10E590002CE04C484668761C46608968B6028E427C
:10E5A00014D343606078401E6070681CC0B2207055
:10E5B0000A2801D30A382070182068430119104630
:10E5C000091D00F06DF82846FFF76AFF6078002803
:10E5D0000FD0A07800280CD1FFF76FFF002808D0DB
:10E5E000112806D02178182251430919091D00F07D
:10E5F00057F8F8BD70B50024324E3148746004708D
:10E600004470847025462846FFF74AFF6D1C0A2D8A
:10E61000F9D32C4934600020083174608200401C1A
:10E620008C500228FAD3002070BD10B5254B1A6813
:10E63000022A09D00A601C46910008340068605024
:10E64000521C00201A6010BD042010BD0620704727
:10E65000F8B507461D4616460C46084600F01AF85F
:10E6600000280CD0601900F015F8002807D03346B8
:10E670002246394601200095FFF750FFF8BD1020D3
:10E68000F8BD08B50B460022014603200092FFF7B3
:10E6900045FF08BD800701D000207047012070476A
:10E6A00038B50C46E268074B920008339D5809784C
:10E6B00062680092024620460C306369A84738BD64
:10E6C000243200207C2C00200149016070470000AA
:10E6D00000FC030010B5FDF71FFD10BDBFF34F8F09
:10E6E00004490348C860BFF34F8F00BFFDE7000037
:10E6F0000400FA0500ED00E030B5CB0008339DB210
:10E7000093070024002B01D0072030BD574B9A609F
:10E710005219DA605C701C7058809980002030BDFE
:10E72000F7B5524C82B060880F4681426ED8002007
:10E73000694608704F494E4E4868C005C00D18D054
:10E74000103840B2002807DA0207120F083A920880
:10E7500092005118C96904E08108474A8900891864
:10E7600009688007C00EC1400806850F012D01D140
:10E770000AE00425684636DF02280CD0002803D0C2
:10E7800000221146FFF7AAFF22786078A18888420C
:10E7900003DA401C02E072B6F6E70020C0B29042F5
:10E7A00007D066786078884201DA401C00E00020DB
:10E7B0006070012D0BD062B66846007837DF022802
:10E7C00005D0002803D000221146FFF787FF284814
:10E7D000864219D0A068F500049941510299002998
:10E7E0000CD0002F0AD060883A464643E0683018C3
:10E7F00000F024FDA0682818878002E00021281876
:10E800008180002005B0F0BD0420FBE70920F9E776
:10E810000EB504E068468188029A0098904702AAE3
:10E8200001A9684600F003F80028F3D00EBD70B5CA
:10E830000E4B05241D785E78AE4215D01D781C78ED
:10E840009E88B44201DA641C00E000241C705C88DD
:10E85000DE686C43A41904609B68E800C418A488AF
:10E860000C80185800241060204670BD8C2C0020AD
:10E87000FFFF000000ED00E000E400E08307FF225E
:10E88000DB0E9A408907090E994000280BDA000731
:10E89000000F08388308F8489B001818C369934391
:10E8A0000B43C36170478308F4489B001B1818682A
:10E8B000904308431860704770B50124F049600424
:10E8C0000860F04940108860EE4940398860EE4D9C
:10E8D0006C602F20FDF73AFCAC60EC4D00242F203B
:10E8E0002C61FDF733FCEC7070BDF8B5E749C868E2
:10E8F0000A690C780F7989688646944600913EE053
:10E900000099E20055182A7836E0182353436968C5
:10E91000521CC918AB78D2B2934200D100220B78B6
:10E92000022B02D0032B27D123E04E680346014679
:10E9300003E0B14204D00B46C96900291CD0F8E7B6
:10E94000002919D08B4208D1C069002805D1CE4FCB
:10E950000126BE600026B44601270E68C969D96148
:10E96000002909D00B689B190B6005E00174C06990
:10E9700000E000210028F9D169789142C5D12146F3
:10E98000641EE4B20029BBD1C04962460A61C86076
:10E990000F71704501D00120F8BD0020F8BDF8B519
:10E9A0000446BA480026C168009107784EE0B7488F
:10E9B000F90080680D1843E0002C02D02046E4697D
:10E9C0001FE02878182141436A68401CC0B25118E2
:10E9D0002870AA78904200D12E700A784868012ADF
:10E9E00030D1027C002A2DD18A684260CA688260D8
:10E9F0000A69C26049698161A4490979002900D086
:10EA00004660A24943680A699C46991A0902A04BCC
:10EA1000090A994202D28268891807E06146511AB0
:10EA200009028268090A8A4202D9511A016000E08B
:10EA300006604660012186600174C66100F03FF9FE
:10EA4000002CB9D1287869788842BAD138467F1E1F
:10EA5000FFB20028ABD18D48C1680098814201D037
:10EA60000120F8BD0020F8BD10B58A4900200860DB
:10EA700048608860C860874940390860486000F095
:10EA800041F910BD10B500F07AF910BDFFB590073F
:10EA9000002581B014460E46002833D17B4F002C50
:10EAA00032D0FFF709FF04987861032038703346AD
:10EAB0001821224600204B43BC601834C10089183D
:10EAC0000D704D708E704C601C19401C0328F5DBD6
:10EAD000FD607D7001247048BD7024050460032131
:10EAE0001420FFF7CBFE6648803804606B4C019819
:10EAF000A06003211120FFF7C1FE6068386100208B
:10EB000005B0F0BD0720FBE7BD60FBE75F4B9B68EE
:10EB1000002B07D0002A07D0002805D00068037C0E
:10EB2000002B03D0082070470720704741744261D2
:10EB30000020704750494868C005C00D19D01038F2
:10EB400040B2002807DA0207120F083A9208920032
:10EB50005118C96904E08108484A89008918096880
:10EB60008007C00EC1400806800F012803D003288B
:10EB700003D0022070470020704701207047FEB587
:10EB80000D46424917468968044600292AD0002CC0
:10EB900028D0052D01D20720FEBD6069002821D0B4
:10EBA000607C012820D00026FFF7C4FFC000374951
:10EBB000019089684018694600F021F9002815D0B5
:10EBC000012101703549446049680830E2C02F498D
:10EBD00001988968411868460078487000F08DF8FF
:10EBE0000020FEBD0820FEBD2E46DDE70420FEBD50
:10EBF000F8B5264D0446A96800291CD0002C1AD06F
:10EC00006069002817D000262674FFF793FFC7001D
:10EC1000A8686946381800F0F2F800280DD00221E3
:10EC200001704460A868391868460078487000F0A0
:10EC300064F83046F8BD0820F8BD0420F8BDF8B5EA
:10EC4000124CA06800282BD0FFF774FFC600A06804
:10EC50006946301800F0D3F8002823D00321017052
:10EC600000254560A068311868460078487000F0BB
:10EC700044F82846F8BD000000ED00E000E400E0A4
:10EC800080E100E040130140001001409C2C002076
:10EC9000FFFF7F004011014080E200E000150140CD
:10ECA0000820E7E70420E5E7904949680160002073
:10ECB0007047401A0002000A10600020704710B52B
:10ECC0008B4BD968002906D002680C68A24204D890
:10ECD000A21A0A60C161D86010BD0B4604E00B4661
:10ECE000C969121B002904D00C689442F7D3A41AF6
:10ECF0000C600260C161D86110BD01207D49000532
:10ED000008607047F8B57A4DEC68002CB2D07748AF
:10ED1000002740682969401A0602360A2068B04276
:10ED20001AD8361AC7192246107CE469002811D077
:10ED3000002010746B69002B09D0916950699847C5
:10ED4000002807D000221146FFF7C8FC02E05169F5
:10ED500090698847002CE1D16978A878814206D172
:10ED6000401CC0B2A870022801D10020A8706049E0
:10ED70000006800D18310F50FFF7BFFF7AE7FEB590
:10ED80005B4C00252769E0680290684600F04AF86D
:10ED90000190FFF7AAFD06460198002822D0002323
:10EDA0000098E16817E00E680A46864202D9301AD8
:10EDB000086012E0801BF31800261660D668D1693F
:10EDC000B446002E07D0FE183602360A5660664654
:10EDD0009660D56115460029E5D12846E160FFF728
:10EDE000DEFD06E02846FFF7DAFD002801D1002EFF
:10EDF00002D0029800F033F800202071FEBD427866
:10EE00008378521CD2B2934200D1002203789342FD
:10EE100001D1002070470A704168407818225043A1
:10EE20000818704710B5324900234A788C78A242FE
:10EE300012D0521CD2B24A70022A00D14B704A78CA
:10EE40002B4B920018339A58026008691018000280
:10EE5000000A0861012010BD0360002010BDF8B554
:10EE60002348C16800293ED00E6820494C680769D4
:10EE7000C078E11B0D022D0AED1C002815D10120E0
:10EE80001D4A000450601C4A403A50601949400035
:10EE900080310860194908601949012008602F2055
:10EEA000FDF754F912490120C870B54200D2354629
:10EEB000E81900020D4B000A403318600B4A5168F4
:10EEC000001B091B0902090A0002000AC91C814231
:10EED00008D9506818602F20FDF738F9012005493E
:10EEE00040040860C6E6FFF7E7FCC3E600150140F2
:10EEF0009C2C002000E200E04013014000E100E013
:10EF00000010014010B50446082904D00022114623
:10EF10001046FFF7E3FB21686068884710BD1CB509
:10EF200001910090024A08216846FFF7F9FB1CBDD9
:10EF300005EF030010B50446002A02D01088002215
:10EF400010E00A48FBE7030A00020343A05C5840B4
:10EF500003061B0F43401803584083B21806C00C29
:10EF60005840521C8A42EED310BD0000FFFF000043
:10EF70005648002101705748554A02608160C160BF
:10EF800001610822416142608161084670470020AA
:10EF90007047002805D04D490A78002A03D0042084
:10EFA00070470E20704701220A704849491C0160D1
:10EFB00000207047454900200870704710B50029AF
:10EFC0001DD000220A60434A5368002B1BD0202822
:10EFD00017D85B1E5360D0682423401CD060106992
:10EFE00014684343E3180B60012383409169401C7C
:10EFF00019434007400F91611061002010BD0E20A1
:10F0000010BD0C2010BD042010BDF0B5314A0646DD
:10F01000916800292AD057691020791A4907490FA9
:10F0200014680B4624254D436519B54206D10124C9
:10F0300095698C4065400020956104E0491C4907B2
:10F04000490F8F42EED1491C4E07760F9569012179
:10F050000C469C4025420AD19368002B07D05B1ECA
:10F06000936053685B1C53603346F1E70420F0BDA6
:10F07000184A2423117C1268491E4907490F594335
:10F08000203150500020704770B500281AD0002958
:10F0900018D0104AD368002B16D05B1ED36093683B
:10F0A00024265B1C9360536915681C467343EE1855
:10F0B00020330660E858641C08606007400F506108
:10F0C000002070BD0E2070BD042070BDBC2C00203F
:10F0D000183300203834002010B508461146FDF7DB
:10F0E0008FF810BDF8B53E4C2078002837D0206945
:10F0F000002807D00026E068002805D00025002E53
:10F1000004D013E00126F6E70125F8E7684651DF51
:10F11000052806D0002806D000221146FFF7DEFAA7
:10F1200004E0012602E0216900988847002D12D1F1
:10F13000608869460880A06861DF052806D000283D
:10F1400006D000221146FFF7C9FA04E0012502E0CB
:10F15000E168A0688847002ED8D0002DCFD0F8BD38
:10F160001F480078704770B5002901D08C0701D086
:10F17000072070BD1A4C0125A160628019496360A7
:10F1800010DF0028F5D1257016202EDF70BD11DFAD
:10F19000002801D0012100E00021114A11707047C0
:10F1A000002803D00E49C860002070470E20704729
:10F1B000002803D00A490861002070470E207047DC
:10F1C00010B507484068002807D08047002803D0C2
:10F1D00000221146FFF782FA10BDFFF783FF10BD32
:10F1E000C42C0020D9F0030010B5002904D000225F
:10F1F00011461046FFF772FAFFF774FF10BD10B505
:10F200000021024A0846FFF78BFA10BDE9F103001E
:10F2100030B50B46014600202022012409E00D46AE
:10F22000D5409D4205D31D469540491B2546954036
:10F2300040191546521E002DF1DC30BD03460B432C
:10F240009B0703D009E008C9121F08C0042AFAD29C
:10F2500003E00B780370401C491C521EF9D2704722
:10F26000D2B201E00270401C491EFBD2704700225E
:10F27000F6E710B513460A4604461946FFF7F0FFB5
:10F28000204610BD30B504460020034600E05B1C5C
:10F29000934203D2E05CCD5C401BF8D030BD03212B
:10F2A000001D401E037812021A43491EF9D510466C
:10F2B00070470000064C0125064E05E0E36807CCC8
:10F2C0002B430C3C98471034B442F7D3FCF7FCFEB8
:10F2D00098F30300B8F3030030B47446641E257835
:10F2E000641CAB4200D21D46635D5B00E31830BC7A
:10F2F000184702E008C8121F08C1002AFAD1704757
:10F300007047002001E001C1121F002AFBD17047A5
:10F3100002000000000000000000000000000000EB
:10F320000DC4030000000000000000000200000007
:10F3300000000000000000000000000000000000CD
:10F340009C300020040000000000000000000000CD
:10F35000000000000000000001C7030000000000E2
:10F36000000000000300000000000000000000009A
:10F370000500000000000000000000000000000088
:10F380000000000023D1BCEA5F782315DEEF1212E3
:10F3900000000000E8310020B8F30300002C00203A
:10F3A000D8000000F2F2030090F40300D82C0020F3
:10F3B000800F000002F303000000000000000000C6
:10F3C000000000000000000000000000000000003D
:10F3D000000000000000000000000000000000002D
:10F3E000000000000000000000000000000000001D
:10F3F0000000FFFF000000003200000000000000DD
:10F4000000000000000000000000000000000000FC
:10F41000000000000024F4000000000000000000D4
:10F4200000000000000000000000000000000000DC
:10F4300000000000000000000000000000000000CC
:10F4400000000000000000000000000000000000BC
:10F4500000000000000000000000000000000000AC
:10F46000000000000000000000000000000000009C
:10F47000000000000000000000000000000000008C
:10F48000000000000000000000000000000000007C
:020000041000EA
:0410140000C0030015
:040000050003C0C173
:00000001FF
